{
  "_format": "hh-sol-artifact-1",
  "contractName": "Clash",
  "sourceName": "contracts/Clash.sol",
  "abi": [
    {
      "inputs": [
        {
          "internalType": "contract XP",
          "name": "xpAddress",
          "type": "address"
        },
        {
          "internalType": "contract SONS",
          "name": "sonsAddress",
          "type": "address"
        },
        {
          "internalType": "contract GOD",
          "name": "godAddress",
          "type": "address"
        },
        {
          "components": [
            {
              "internalType": "uint8",
              "name": "gameConstant",
              "type": "uint8"
            },
            {
              "internalType": "uint16",
              "name": "winnerPercent",
              "type": "uint16"
            },
            {
              "internalType": "uint16",
              "name": "ownerPercent",
              "type": "uint16"
            },
            {
              "internalType": "uint256",
              "name": "entranceFee",
              "type": "uint256"
            }
          ],
          "internalType": "struct ArenaDetails",
          "name": "arena",
          "type": "tuple"
        },
        {
          "internalType": "address",
          "name": "arenaOwner",
          "type": "address"
        },
        {
          "internalType": "address",
          "name": "addressOne",
          "type": "address"
        },
        {
          "internalType": "address",
          "name": "addressTwo",
          "type": "address"
        },
        {
          "internalType": "uint8[]",
          "name": "deckOne",
          "type": "uint8[]"
        },
        {
          "internalType": "uint8[]",
          "name": "deckTwo",
          "type": "uint8[]"
        }
      ],
      "stateMutability": "nonpayable",
      "type": "constructor"
    },
    {
      "anonymous": false,
      "inputs": [
        {
          "indexed": false,
          "internalType": "uint8",
          "name": "orow",
          "type": "uint8"
        },
        {
          "indexed": false,
          "internalType": "uint8",
          "name": "ocol",
          "type": "uint8"
        },
        {
          "indexed": false,
          "internalType": "uint8",
          "name": "damage",
          "type": "uint8"
        }
      ],
      "name": "AttackBase",
      "type": "event"
    },
    {
      "anonymous": false,
      "inputs": [
        {
          "indexed": false,
          "internalType": "uint8",
          "name": "orow",
          "type": "uint8"
        },
        {
          "indexed": false,
          "internalType": "uint8",
          "name": "ocol",
          "type": "uint8"
        },
        {
          "indexed": false,
          "internalType": "uint8",
          "name": "trow",
          "type": "uint8"
        },
        {
          "indexed": false,
          "internalType": "uint8",
          "name": "tcol",
          "type": "uint8"
        },
        {
          "indexed": false,
          "internalType": "uint8",
          "name": "points",
          "type": "uint8"
        }
      ],
      "name": "AttackCard",
      "type": "event"
    },
    {
      "anonymous": false,
      "inputs": [
        {
          "indexed": false,
          "internalType": "uint8",
          "name": "trow",
          "type": "uint8"
        },
        {
          "indexed": false,
          "internalType": "uint8",
          "name": "tcol",
          "type": "uint8"
        },
        {
          "indexed": false,
          "internalType": "uint8",
          "name": "points",
          "type": "uint8"
        }
      ],
      "name": "AttackGodPower",
      "type": "event"
    },
    {
      "anonymous": false,
      "inputs": [
        {
          "indexed": false,
          "internalType": "address",
          "name": "winner",
          "type": "address"
        }
      ],
      "name": "GameFinished",
      "type": "event"
    },
    {
      "anonymous": false,
      "inputs": [
        {
          "indexed": false,
          "internalType": "uint8",
          "name": "orow",
          "type": "uint8"
        },
        {
          "indexed": false,
          "internalType": "uint8",
          "name": "ocol",
          "type": "uint8"
        },
        {
          "indexed": false,
          "internalType": "uint8",
          "name": "trow",
          "type": "uint8"
        },
        {
          "indexed": false,
          "internalType": "uint8",
          "name": "tcol",
          "type": "uint8"
        },
        {
          "indexed": false,
          "internalType": "uint8",
          "name": "points",
          "type": "uint8"
        }
      ],
      "name": "HealCard",
      "type": "event"
    },
    {
      "anonymous": false,
      "inputs": [
        {
          "indexed": false,
          "internalType": "uint8",
          "name": "trow",
          "type": "uint8"
        },
        {
          "indexed": false,
          "internalType": "uint8",
          "name": "tcol",
          "type": "uint8"
        },
        {
          "indexed": false,
          "internalType": "uint8",
          "name": "points",
          "type": "uint8"
        }
      ],
      "name": "HealGodPower",
      "type": "event"
    },
    {
      "anonymous": false,
      "inputs": [
        {
          "indexed": false,
          "internalType": "uint8",
          "name": "orow",
          "type": "uint8"
        },
        {
          "indexed": false,
          "internalType": "uint8",
          "name": "ocol",
          "type": "uint8"
        },
        {
          "indexed": false,
          "internalType": "uint8",
          "name": "trow",
          "type": "uint8"
        },
        {
          "indexed": false,
          "internalType": "uint8",
          "name": "tcol",
          "type": "uint8"
        }
      ],
      "name": "MoveCard",
      "type": "event"
    },
    {
      "anonymous": false,
      "inputs": [
        {
          "indexed": false,
          "internalType": "uint8",
          "name": "col",
          "type": "uint8"
        },
        {
          "indexed": false,
          "internalType": "uint8",
          "name": "typeId",
          "type": "uint8"
        }
      ],
      "name": "PutCard",
      "type": "event"
    },
    {
      "anonymous": false,
      "inputs": [
        {
          "indexed": false,
          "internalType": "uint8",
          "name": "turn",
          "type": "uint8"
        }
      ],
      "name": "TurnFinished",
      "type": "event"
    },
    {
      "inputs": [
        {
          "internalType": "address",
          "name": "",
          "type": "address"
        }
      ],
      "name": "flashLoans",
      "outputs": [
        {
          "internalType": "uint256",
          "name": "",
          "type": "uint256"
        }
      ],
      "stateMutability": "view",
      "type": "function"
    },
    {
      "inputs": [
        {
          "internalType": "uint256",
          "name": "",
          "type": "uint256"
        },
        {
          "internalType": "uint256",
          "name": "",
          "type": "uint256"
        }
      ],
      "name": "gameBoard",
      "outputs": [
        {
          "internalType": "bool",
          "name": "occupied",
          "type": "bool"
        },
        {
          "internalType": "uint8",
          "name": "slotId",
          "type": "uint8"
        },
        {
          "internalType": "uint8",
          "name": "health",
          "type": "uint8"
        },
        {
          "internalType": "uint8",
          "name": "cardId",
          "type": "uint8"
        },
        {
          "internalType": "address",
          "name": "owner",
          "type": "address"
        }
      ],
      "stateMutability": "view",
      "type": "function"
    },
    {
      "inputs": [],
      "name": "getEnemyDeck",
      "outputs": [
        {
          "internalType": "uint8[]",
          "name": "",
          "type": "uint8[]"
        }
      ],
      "stateMutability": "view",
      "type": "function"
    },
    {
      "inputs": [
        {
          "components": [
            {
              "internalType": "enum MoveType",
              "name": "moveType",
              "type": "uint8"
            },
            {
              "internalType": "uint8",
              "name": "slotId",
              "type": "uint8"
            },
            {
              "components": [
                {
                  "internalType": "uint8",
                  "name": "row",
                  "type": "uint8"
                },
                {
                  "internalType": "uint8",
                  "name": "col",
                  "type": "uint8"
                }
              ],
              "internalType": "struct Origin",
              "name": "origin",
              "type": "tuple"
            },
            {
              "components": [
                {
                  "internalType": "uint8",
                  "name": "row",
                  "type": "uint8"
                },
                {
                  "internalType": "uint8",
                  "name": "col",
                  "type": "uint8"
                }
              ],
              "internalType": "struct Target",
              "name": "target",
              "type": "tuple"
            }
          ],
          "internalType": "struct Move[]",
          "name": "moves",
          "type": "tuple[]"
        }
      ],
      "name": "playTurn",
      "outputs": [],
      "stateMutability": "nonpayable",
      "type": "function"
    }
  ],
  "bytecode": "0x6101406040526000805462ffffff191690553480156200001e57600080fd5b5060405162003b9038038062003b90833981016040819052620000419162000630565b85516001906200005390600262000741565b6200005f91906200076d565b60ff16825114801562000092575085516001906200007f90600262000741565b6200008b91906200076d565b60ff168151145b620000f55760405162461bcd60e51b815260206004820152602960248201527f4465636b2073697a6520646f65736e2774206d617463682067616d6520726571604482015268756972656d656e747360b81b606482015260840160405180910390fd5b600180546001600160a01b03199081166001600160a01b038c81169182179093556002805483168c8516179055600380549092168a8416179091556040805160808101918290526327e235e360e01b90915291861660848301528190620001ba906327e235e360a484015b60206040518083038186803b1580156200017957600080fd5b505afa1580156200018e573d6000803e3d6000fd5b505050506040513d601f19601f82011682018060405250810190620001b4919062000727565b620003ab565b60ff9081168252885181166020808401919091526001600160a01b0380891660408086019190915260609485018890528551600480548886015193890151909416620100000262010000600160b01b03199387166101000261ffff1990951692909616919091179290921716929092178255918301518051919262000246926005929091019062000400565b50506040805160808101918290526001546327e235e360e01b9092526001600160a01b03868116608483015290925082916200028c91166327e235e360a4840162000160565b60ff9081168252885181166020808401919091526001600160a01b0380881660408086019190915260609485018790528551600680548886015193890151909416620100000262010000600160b01b03199387166101000261ffff1990951692909616919091179290921716929092178255918301518051919262000318926007929091019062000400565b50505033606090811b6101205285901b6001600160601b03191661010052604086015160f090811b6001600160f01b031990811660e052602088015190911b1660c052855160f81b6001600160f81b03191660a05285516001906200037f90600262000741565b6200038b91906200076d565b60f81b6001600160f81b03191660805250620007d8975050505050505050565b60006064821015620003bf5750600a919050565b6101c2821015620003d25750600f919050565b61041a821015620003e557506014919050565b6110fe821015620003f857506019919050565b50601e919050565b82805482825590600052602060002090601f016020900481019282156200049b5791602002820160005b838211156200046a57835183826101000a81548160ff021916908360ff16021790555092602001926001016020816000010492830192600103026200042a565b8015620004995782816101000a81549060ff02191690556001016020816000010492830192600103026200046a565b505b50620004a9929150620004ad565b5090565b5b80821115620004a95760008155600101620004ae565b8051620004d181620007bf565b919050565b600082601f830112620004e857600080fd5b815160206001600160401b0380831115620005075762000507620007a9565b8260051b604051601f19603f830116810181811084821117156200052f576200052f620007a9565b604052848152838101925086840182880185018910156200054f57600080fd5b600092505b858310156200057d5762000568816200061e565b84529284019260019290920191840162000554565b50979650505050505050565b6000608082840312156200059c57600080fd5b604051608081016001600160401b0381118282101715620005c157620005c1620007a9565b604052905080620005d2836200061e565b8152620005e2602084016200060b565b6020820152620005f5604084016200060b565b6040820152606083015160608201525092915050565b805161ffff81168114620004d157600080fd5b805160ff81168114620004d157600080fd5b60008060008060008060008060006101808a8c0312156200065057600080fd5b89516200065d81620007bf565b60208b01519099506200067081620007bf565b97506200068060408b01620004c4565b9650620006918b60608c0162000589565b9550620006a160e08b01620004c4565b9450620006b26101008b01620004c4565b9350620006c36101208b01620004c4565b6101408b01519093506001600160401b0380821115620006e257600080fd5b620006f08d838e01620004d6565b93506101608c01519150808211156200070857600080fd5b50620007178c828d01620004d6565b9150509295985092959850929598565b6000602082840312156200073a57600080fd5b5051919050565b600060ff821660ff84168160ff048111821515161562000765576200076562000793565b029392505050565b600060ff821660ff8416808210156200078a576200078a62000793565b90039392505050565b634e487b7160e01b600052601160045260246000fd5b634e487b7160e01b600052604160045260246000fd5b6001600160a01b0381168114620007d557600080fd5b50565b60805160f81c60a05160f81c60c05160f01c60e05160f01c6101005160601c6101205160601c6133176200087960003960008181611c03015281816126da01528181612a3201528181612ae60152612c2b01526000612c4c01526000612c76015260008181611c3e015281816127150152612b130152600061044d01526000818161061f01528181610a7b01528181610ab901526118ba01526133176000f3fe608060405234801561001057600080fd5b506004361061004c5760003560e01c80631be80d55146100515780633f312752146100a45780634f033fa0146100b9578063d9d881e3146100e7575b600080fd5b61006461005f36600461306e565b6100fc565b60408051951515865260ff94851660208701529284169285019290925290911660608301526001600160a01b0316608082015260a0015b60405180910390f35b6100b76100b2366004612ee6565b610167565b005b6100d96100c7366004612eb6565b600b6020526000908152604090205481565b60405190815260200161009b565b6100ef610207565b60405161009b91906130ad565b600c828154811061010c57600080fd5b90600052602060002001818154811061012457600080fd5b60009182526020909120015460ff80821693506101008204811692506201000082048116916301000000810490911690600160201b90046001600160a01b031685565b6008546201000090046001600160a01b031633146101bd5760405162461bcd60e51b815260206004820152600e60248201526d2737ba103934b3b43a103a3ab93760911b60448201526064015b60405180910390fd5b60005b818110156101fa576101e88383838181106101dd576101dd6132bc565b905060c0020161029e565b806101f281613275565b9150506101c0565b50610203610447565b5050565b6004546060906201000090046001600160a01b0316331461022957600561022c565b60075b80548060200260200160405190810160405280929190818152602001828054801561029457602002820191906000526020600020906000905b825461010083900a900460ff168152602060019283018181049485019490930390920291018084116102655790505b5050505050905090565b60006102ad6020830183612f76565b60068111156102be576102be6132a6565b14156102ef576102ec6102d76040830160208401613090565b6102e76080840160608501613090565b610580565b50565b60016102fe6020830183612f76565b600681111561030f5761030f6132a6565b1415610325576102ec81604001826080016109ac565b60026103346020830183612f76565b6006811115610345576103456132a6565b141561035b576102ec8160400182608001610f2a565b600361036a6020830183612f76565b600681111561037b5761037b6132a6565b141561038d576102ec8160400161163d565b600461039c6020830183612f76565b60068111156103ad576103ad6132a6565b14156103cf576102ec6103c66040830160208401613090565b82608001611a56565b60056103de6020830183612f76565b60068111156103ef576103ef6132a6565b1415610405576102ec8160400182608001611fbf565b60066104146020830183612f76565b6006811115610425576104256132a6565b14156102ec576102ec61043e6040830160208401613090565b82608001612558565b600880547f00000000000000000000000000000000000000000000000000000000000000009190600190610484908490610100900460ff16613167565b92506101000a81548160ff021916908360ff160217905550600060018111156104af576104af6132a6565b60005460ff1660018111156104c6576104c66132a6565b146104d25760006104d5565b60015b6000805460ff1916600183818111156104f0576104f06132a6565b021790555060008054610100900461ffff1690600161050e83613253565b91906101000a81548161ffff021916908361ffff160217905550507fb2a5f112f4ef2b6d1ab7a886557835d90f7826318e7a0a40a34673a7248ba8de60008054906101000a900460ff166001811115610569576105696132a6565b60405160ff909116815260200160405180910390a1565b6008546201000090046001600160a01b03166000908152600a6020908152604080832060ff8616845290915281205490546002916105cb9161ffff91821691610100909104166131f6565b61ffff16101561061d5760405162461bcd60e51b815260206004820152601a60248201527f43616e27742070757420706c617965722074686973207475726e00000000000060448201526064016101b4565b7f000000000000000000000000000000000000000000000000000000000000000060ff168160ff16106106835760405162461bcd60e51b815260206004820152600e60248201526d24b73b30b634b21031b7b63ab6b760911b60448201526064016101b4565b600c600081548110610697576106976132bc565b906000526020600020018160ff16815481106106b5576106b56132bc565b60009182526020909120015460ff16156107045760405162461bcd60e51b815260206004820152601060248201526f10d95b1b081a5cc81bd8d8dd5c1a595960821b60448201526064016101b4565b600060086001018360ff168154811061071f5761071f6132bc565b6000918252602080832090820401546003546040516348c4698960e11b8152601f9093166101000a90910460ff166004830181905293506001600160a01b031690639188d3129060240160e06040518083038186803b15801561078157600080fd5b505afa158015610795573d6000803e3d6000fd5b505050506040513d601f19601f820116820180604052508101906107b99190612f97565b608081015160085491925060ff90811661010090920416116108145760405162461bcd60e51b8152602060048201526014602482015273115b995c99de481b9bdd081cdd59999a58d95b9d60621b60448201526064016101b4565b608081015160088054600190610833908490610100900460ff16613230565b92506101000a81548160ff021916908360ff1602179055506040518060a001604052806001151581526020018560ff1681526020018260a0015160ff1681526020018360ff168152602001600860000160029054906101000a90046001600160a01b03166001600160a01b0316815250600c6000815481106108b7576108b76132bc565b906000526020600020018460ff16815481106108d5576108d56132bc565b600091825260209182902083519101805484840151604080870151606088015160809098015161ffff1990941695151561ff0019169590951761010060ff938416021763ffff00001916620100009583169590950263ff00000019169490941763010000009682169690960295909517640100000000600160c01b031916600160201b6001600160a01b039092169190910217905580518684168152928516918301919091527f2a102de3851f9d59b8d145c1ce90b60cb023d819273a14fd3b25e7f0cec7ed4e910160405180910390a150505050565b6000600c6109bd6020850185613090565b60ff16815481106109d0576109d06132bc565b906000526020600020018360200160208101906109ed9190613090565b60ff1681548110610a0057610a006132bc565b60009182526020918290206040805160a081018252929091015460ff8082161515845261010082048116848601526201000080830482169385019390935263010000008204811660608501526001600160a01b03600160201b90920482166080850152600454600854949650938390048216929093041614917f000000000000000000000000000000000000000000000000000000000000000090911690610aaa90850185613090565b60ff16108015610aee575060ff7f000000000000000000000000000000000000000000000000000000000000000016610ae96040850160208601613090565b60ff16105b610b2e5760405162461bcd60e51b8152602060048201526011602482015270546172676574206f66662d626f756e647360781b60448201526064016101b4565b60808201516001600160a01b03163314610b825760405162461bcd60e51b81526020600482015260156024820152742737ba1037bbb734b733903a34329037b934b3b4b760591b60448201526064016101b4565b600854600161010090910460ff1611610bd35760405162461bcd60e51b8152602060048201526013602482015272115b995c99de481a5b9cdd59999a58da595b9d606a1b60448201526064016101b4565b600081610c0357610be76020850185613090565b610bf46020870187613090565b610bfe9190613230565b610c27565b610c106020860186613090565b610c1d6020860186613090565b610c279190613230565b90506000610c3b6040870160208801613090565b60ff16610c4e6040870160208801613090565b60ff161015610c8657610c676040860160208701613090565b610c776040880160208901613090565b610c819190613230565b610cb0565b610c966040870160208801613090565b610ca66040870160208801613090565b610cb09190613230565b90508160ff1660011480610cc757508060ff166001145b610d065760405162461bcd60e51b815260206004820152601060248201526f125b1b1959d85b081b5bdd995b595b9d60821b60448201526064016101b4565b60088054600191908290610d23908290610100900460ff16613230565b92506101000a81548160ff021916908360ff16021790555083600c866000016020810190610d519190613090565b60ff1681548110610d6457610d646132bc565b90600052602060002001866020016020810190610d819190613090565b60ff1681548110610d9457610d946132bc565b6000918252602091829020835191018054848401516040860151606087015160809097015161ffff1990931694151561ff0019169490941761010060ff928316021763ffff00001916620100009482169490940263ff0000001916939093176301000000939095169290920293909317640100000000600160c01b031916600160201b6001600160a01b039092169190910217909155600c90610e3990880188613090565b60ff1681548110610e4c57610e4c6132bc565b90600052602060002001866020016020810190610e699190613090565b60ff1681548110610e7c57610e7c6132bc565b60009182526020918290200180546001600160c01b03191690557fd46e1b079f3442f942e1744a9c599b87a4a96c160cda79caa418bd5e4632a1c290610ec490880188613090565b610ed46040890160208a01613090565b610ee16020890189613090565b610ef160408a0160208b01613090565b6040805160ff958616815293851660208501529184169183019190915290911660608201526080015b60405180910390a1505050505050565b6000600c610f3b6020850185613090565b60ff1681548110610f4e57610f4e6132bc565b90600052602060002001836020016020810190610f6b9190613090565b60ff1681548110610f7e57610f7e6132bc565b600091825260208083206040805160a081018252939091015460ff808216151585526101008204811685850152620100008204811692850192909252630100000081049091166060840152600160201b90046001600160a01b03166080830152909250600c90610ff090850185613090565b60ff1681548110611003576110036132bc565b906000526020600020018360200160208101906110209190613090565b60ff1681548110611033576110336132bc565b60009182526020918290206040805160a081018252919092015460ff8082161515835261010082048116948301949094526201000081048416928201929092526301000000820490921660608301526001600160a01b03600160201b90910481166080808401919091528401519192501633146110c25760405162461bcd60e51b81526004016101b4906130f4565b80516111105760405162461bcd60e51b815260206004820152601a60248201527f41747461636b696e67206f6e20616e20656d7074792063656c6c00000000000060448201526064016101b4565b60808101516001600160a01b03163314156111665760405162461bcd60e51b815260206004820152601660248201527541747461636b696e67206f6e206f776e2063656c6c7360501b60448201526064016101b4565b60035460608301516040516348c4698960e11b815260ff90911660048201526000916001600160a01b031690639188d3129060240160e06040518083038186803b1580156111b357600080fd5b505afa1580156111c7573d6000803e3d6000fd5b505050506040513d601f19601f820116820180604052508101906111eb9190612f97565b9050600081602001516001811115611205576112056132a6565b146112465760405162461bcd60e51b81526020600482015260116024820152704e6f74206120636172642061747461636b60781b60448201526064016101b4565b60045460085462010000918290046001600160a01b03908116929091041614600081611295576112796020870187613090565b6112866020890189613090565b6112909190613230565b6112b9565b6112a26020880188613090565b6112af6020880188613090565b6112b99190613230565b905060006112cd6040890160208a01613090565b60ff166112e06040890160208a01613090565b60ff161015611318576112f96040880160208901613090565b61130960408a0160208b01613090565b6113139190613230565b611342565b6113286040890160208a01613090565b6113386040890160208a01613090565b6113429190613230565b9050836060015160ff168260ff16111580156113685750836040015160ff168160ff1611155b6113ad5760405162461bcd60e51b8152602060048201526016602482015275546172676574206973206f7574206f662072616e676560501b60448201526064016101b4565b600854600161010090910460ff16116114085760405162461bcd60e51b815260206004820152601c60248201527f4e6f7420656e6f75676820656e6572677920666f722061747461636b0000000060448201526064016101b4565b60088054600191908290611425908290610100900460ff16613230565b92506101000a81548160ff021916908360ff1602179055508360c0015160ff16856040015160ff1611611509576000805460808701516001600160a01b03168252600a60209081526040808420828a015160ff1685528252909220805461010090920461ffff1661ffff19909216919091179055600c906114a890890189613090565b60ff16815481106114bb576114bb6132bc565b906000526020600020018760200160208101906114d89190613090565b60ff16815481106114eb576114eb6132bc565b600091825260209091200180546001600160c01b031916905561159d565b60c0840151600c61151d60208a018a613090565b60ff1681548110611530576115306132bc565b9060005260206000200188602001602081019061154d9190613090565b60ff1681548110611560576115606132bc565b6000918252602090912001805460029061158490849062010000900460ff16613230565b92506101000a81548160ff021916908360ff1602179055505b7f821fa0d3357caf1ed6e818f6af88d667dbb5e5afc86fd1dd63c43c5d9cb668de6115cb60208a018a613090565b6115db60408b0160208c01613090565b6115e860208b018b613090565b6115f860408c0160208d01613090565b60c08901516040805160ff9687168152948616602086015292851684840152908416606084015292909216608082015290519081900360a00190a15050505050505050565b60008060005460ff166001811115611657576116576132a6565b14611663576004611666565b60065b90506000600c6116796020850185613090565b60ff168154811061168c5761168c6132bc565b906000526020600020018360200160208101906116a99190613090565b60ff16815481106116bc576116bc6132bc565b600091825260208083206040805160a081018252939091015460ff80821615158552610100820481169385019390935262010000810483168483015263010000008104909216606084018190526001600160a01b03600160201b9093048316608085015260035491516348c4698960e11b815260048101919091529294501690639188d3129060240160e06040518083038186803b15801561175d57600080fd5b505afa158015611771573d6000803e3d6000fd5b505050506040513d601f19601f820116820180604052508101906117959190612f97565b60808301519091506001600160a01b031633146117c45760405162461bcd60e51b81526004016101b4906130f4565b6000816020015160018111156117dc576117dc6132a6565b146118205760405162461bcd60e51b81526020600482015260146024820152732737ba1030b71030ba3a30b1b590383630bcb2b960611b60448201526064016101b4565b600854600161010090910460ff161161186f5760405162461bcd60e51b81526020600482015260116024820152704e6f7420656e6f75676820656e6572677960781b60448201526064016101b4565b60045460085462010000918290046001600160a01b03908116929091041614806118b157606082015160ff166118a86020870187613090565b60ff16106118f8565b606082015160ff7f000000000000000000000000000000000000000000000000000000000000000016906118e86020880188613090565b6118f29190613167565b60ff1610155b61193b5760405162461bcd60e51b815260206004820152601460248201527342617365206973206f7574206f662072616e676560601b60448201526064016101b4565b60088054600191908290611958908290610100900460ff16613230565b82546101009290920a60ff818102199093169183160217909155855460c08501519082169116111590506119b15760085484546119ac916001600160a01b0362010000918290048116929190910416612a18565b6119e4565b60c0820151845485906000906119cb90849060ff16613230565b92506101000a81548160ff021916908360ff1602179055505b7f9514b0a645ab311710078885b3d1aa7b7c941ade5dba24715646519e625ec858611a126020870187613090565b611a226040880160208901613090565b60c08501516040805160ff948516815292841660208401529216918101919091526060015b60405180910390a15050505050565b60008060005460ff166001811115611a7057611a706132a6565b14611a7c576004611a7f565b60065b90506000600c611a926020850185613090565b60ff1681548110611aa557611aa56132bc565b90600052602060002001836020016020810190611ac29190613090565b60ff1681548110611ad557611ad56132bc565b600091825260208083206040805160a081018252939091015460ff8082161515855261010082048116938501939093526201000081048316918401919091526301000000810482166060840152600160201b90046001600160a01b03908116608084015260035460098054949650911692639188d312928916908110611b5d57611b5d6132bc565b60009182526020918290209181049091015460405160e084901b6001600160e01b0319168152601f9092166101000a900460ff16600482015260240160e06040518083038186803b158015611bb157600080fd5b505afa158015611bc5573d6000803e3d6000fd5b505050506040513d601f19601f82011682018060405250810190611be99190612f97565b600254604051636eb1769f60e11b81526001600160a01b037f0000000000000000000000000000000000000000000000000000000000000000811660048301523060248301529293506000926103e89261ffff7f0000000000000000000000000000000000000000000000000000000000000000169291169063dd62ed3e9060440160206040518083038186803b158015611c8357600080fd5b505afa158015611c97573d6000803e3d6000fd5b505050506040513d601f19601f82011682018060405250810190611cbb9190613055565b611cc591906131ae565b611ccf919061318c565b8351909150611cf05760405162461bcd60e51b81526004016101b490613121565b835460808401516001600160a01b03908116620100009092041614611d4d5760405162461bcd60e51b81526020600482015260136024820152722bb937b733903a30b933b2ba10383630bcb2b960691b60448201526064016101b4565b336000908152600b6020526040902054811015611dac5760405162461bcd60e51b815260206004820181905260248201527f4e6f2062616c616e6365206c65667420746f2075736520676f6420706f77657260448201526064016101b4565b611db760058261318c565b336000908152600b602052604081208054909190611dd690849061314f565b925050819055508160c0015160ff16836040015160ff1611611eac576000805485546201000090046001600160a01b03168252600a602090815260408084208783015160ff1685528252909220805461010090920461ffff1661ffff19909216919091179055600c90611e4b90870187613090565b60ff1681548110611e5e57611e5e6132bc565b90600052602060002001856020016020810190611e7b9190613090565b60ff1681548110611e8e57611e8e6132bc565b600091825260209091200180546001600160c01b0319169055611f4c565b60038260c00151611ebd91906131cd565b600c611ecc6020880188613090565b60ff1681548110611edf57611edf6132bc565b90600052602060002001866020016020810190611efc9190613090565b60ff1681548110611f0f57611f0f6132bc565b60009182526020909120018054600290611f3390849062010000900460ff16613230565b92506101000a81548160ff021916908360ff1602179055505b7fad81c2d8ff449019cfaf2eda745547aae68efd585520cf7bbad02ca0ff57aaf1611f7a6020870187613090565b611f8a6040880160208901613090565b60038560c00151611f9b91906131cd565b6040805160ff94851681529284166020840152921691810191909152606001610f1a565b6000600c611fd06020850185613090565b60ff1681548110611fe357611fe36132bc565b906000526020600020018360200160208101906120009190613090565b60ff1681548110612013576120136132bc565b600091825260208083206040805160a081018252939091015460ff808216151585526101008204811685850152620100008204811692850192909252630100000081049091166060840152600160201b90046001600160a01b03166080830152909250600c9061208590850185613090565b60ff1681548110612098576120986132bc565b906000526020600020018360200160208101906120b59190613090565b60ff16815481106120c8576120c86132bc565b600091825260208083206040805160a081018252939091015460ff8082161515855261010082048116938501939093526201000081048316848301526301000000810483166060808601919091526001600160a01b03600160201b909204821660808601526003549088015192516348c4698960e11b8152929093166004830152929450911690639188d3129060240160e06040518083038186803b15801561217057600080fd5b505afa158015612184573d6000803e3d6000fd5b505050506040513d601f19601f820116820180604052508101906121a89190612f97565b60808401519091506001600160a01b031633146121d75760405162461bcd60e51b81526004016101b4906130f4565b81516121f55760405162461bcd60e51b81526004016101b490613121565b60808201516001600160a01b031633146122495760405162461bcd60e51b8152602060048201526015602482015274139bdd081bdddb9a5b99c81d1a19481d185c99d95d605a1b60448201526064016101b4565b600181602001516001811115612261576122616132a6565b146122a05760405162461bcd60e51b815260206004820152600f60248201526e139bdd0818481a19585b0818d85c99608a1b60448201526064016101b4565b60045460085462010000918290046001600160a01b039081169290910416146000816122ef576122d36020870187613090565b6122e06020890189613090565b6122ea9190613230565b612313565b6122fc6020880188613090565b6123096020880188613090565b6123139190613230565b905060006123276040890160208a01613090565b60ff1661233a6040890160208a01613090565b60ff161015612372576123536040880160208901613090565b61236360408a0160208b01613090565b61236d9190613230565b61239c565b6123826040890160208a01613090565b6123926040890160208a01613090565b61239c9190613230565b9050836060015160ff168260ff16111580156123c25750836040015160ff168160ff1611155b6124075760405162461bcd60e51b8152602060048201526016602482015275546172676574206973206f7574206f662072616e676560501b60448201526064016101b4565b600854600161010090910460ff16116124565760405162461bcd60e51b81526020600482015260116024820152704e6f7420656e6f75676820656e6572677960781b60448201526064016101b4565b60088054600191908290612473908290610100900460ff16613230565b92506101000a81548160ff021916908360ff1602179055508360c00151600c8860000160208101906124a59190613090565b60ff16815481106124b8576124b86132bc565b906000526020600020018860200160208101906124d59190613090565b60ff16815481106124e8576124e86132bc565b6000918252602090912001805460029061250c90849062010000900460ff16613167565b92506101000a81548160ff021916908360ff1602179055507f8755e3de7285d4f55c28476287892f02fa00fe2a9476fd9f76aa96ddce5a12378860000160208101906115cb9190613090565b6000600c6125696020840184613090565b60ff168154811061257c5761257c6132bc565b906000526020600020018260200160208101906125999190613090565b60ff16815481106125ac576125ac6132bc565b600091825260208083206040805160a081018252939091015460ff8082161515855261010082048116938501939093526201000081048316918401919091526301000000810482166060840152600160201b90046001600160a01b03908116608084015260035460098054949650911692639188d312928816908110612634576126346132bc565b60009182526020918290209181049091015460405160e084901b6001600160e01b0319168152601f9092166101000a900460ff16600482015260240160e06040518083038186803b15801561268857600080fd5b505afa15801561269c573d6000803e3d6000fd5b505050506040513d601f19601f820116820180604052508101906126c09190612f97565b600254604051636eb1769f60e11b81526001600160a01b037f0000000000000000000000000000000000000000000000000000000000000000811660048301523060248301529293506000926103e89261ffff7f0000000000000000000000000000000000000000000000000000000000000000169291169063dd62ed3e9060440160206040518083038186803b15801561275a57600080fd5b505afa15801561276e573d6000803e3d6000fd5b505050506040513d601f19601f820116820180604052508101906127929190613055565b61279c91906131ae565b6127a6919061318c565b336000908152600b60205260409020549091508110156128085760405162461bcd60e51b815260206004820181905260248201527f4e6f2062616c616e6365206c65667420746f2075736520676f6420706f77657260448201526064016101b4565b600182602001516001811115612820576128206132a6565b1461285f5760405162461bcd60e51b815260206004820152600f60248201526e139bdd0818481a19585b0818d85c99608a1b60448201526064016101b4565b825161287d5760405162461bcd60e51b81526004016101b490613121565b60808301516001600160a01b031633146128d15760405162461bcd60e51b8152602060048201526015602482015274139bdd081bdddb9a5b99c81d1a19481d185c99d95d605a1b60448201526064016101b4565b6128dc60058261318c565b336000908152600b6020526040812080549091906128fb90849061314f565b909155505060c0820151612911906003906131cd565b600c6129206020870187613090565b60ff1681548110612933576129336132bc565b906000526020600020018560200160208101906129509190613090565b60ff1681548110612963576129636132bc565b6000918252602090912001805460029061298790849062010000900460ff16613167565b92506101000a81548160ff021916908360ff1602179055507fb66f84be78126463140b4fcd1f22ebe400bb165705bbfdd215781a0a0678660e8460000160208101906129d39190613090565b6129e36040870160208801613090565b60038560c001516129f491906131cd565b6040805160ff94851681529284166020840152921691810191909152606001611a47565b600254604051636eb1769f60e11b81526001600160a01b037f000000000000000000000000000000000000000000000000000000000000000081166004830152306024830152600092169063dd62ed3e9060440160206040518083038186803b158015612a8457600080fd5b505afa158015612a98573d6000803e3d6000fd5b505050506040513d601f19601f82011682018060405250810190612abc9190613055565b6002546001600160a01b038581166000908152600b602052604090205492935016906323b872dd907f00000000000000000000000000000000000000000000000000000000000000009086906103e8612b3961ffff7f000000000000000000000000000000000000000000000000000000000000000016886131ae565b612b43919061318c565b612b4d9190613219565b6040516001600160e01b031960e086901b1681526001600160a01b0393841660048201529290911660248301526044820152606401602060405180830381600087803b158015612b9c57600080fd5b505af1158015612bb0573d6000803e3d6000fd5b505050506040513d601f19601f82011682018060405250810190612bd49190612f5b565b612c185760405162461bcd60e51b815260206004820152601560248201527415da5b9b995c881c185e5b595b9d0819985a5b1959605a1b60448201526064016101b4565b6002546001600160a01b03166323b872dd7f00000000000000000000000000000000000000000000000000000000000000007f00000000000000000000000000000000000000000000000000000000000000006103e8612c9c61ffff7f000000000000000000000000000000000000000000000000000000000000000016876131ae565b612ca6919061318c565b6040516001600160e01b031960e086901b1681526001600160a01b0393841660048201529290911660248301526044820152606401602060405180830381600087803b158015612cf557600080fd5b505af1158015612d09573d6000803e3d6000fd5b505050506040513d601f19601f82011682018060405250810190612d2d9190612f5b565b612d795760405162461bcd60e51b815260206004820152601a60248201527f4172656e61206f776e6572207061796d656e74206661696c656400000000000060448201526064016101b4565b6001546040516340c10f1960e01b81526001600160a01b038581166004830152600a6024830152909116906340c10f1990604401600060405180830381600087803b158015612dc757600080fd5b505af1158015612ddb573d6000803e3d6000fd5b50506001546040516340c10f1960e01b81526001600160a01b0386811660048301526002602483015290911692506340c10f199150604401600060405180830381600087803b158015612e2d57600080fd5b505af1158015612e41573d6000803e3d6000fd5b50506040516001600160a01b03861681527f1728dd43546edd06fabfe796e5b641a151aa90998bfd1b1ec0ae98c6e77084599250602001905060405180910390a1505050565b80518015158114612e9757600080fd5b919050565b805160028110612e9757600080fd5b8051612e97816132d2565b600060208284031215612ec857600080fd5b81356001600160a01b0381168114612edf57600080fd5b9392505050565b60008060208385031215612ef957600080fd5b823567ffffffffffffffff80821115612f1157600080fd5b818501915085601f830112612f2557600080fd5b813581811115612f3457600080fd5b86602060c083028501011115612f4957600080fd5b60209290920196919550909350505050565b600060208284031215612f6d57600080fd5b612edf82612e87565b600060208284031215612f8857600080fd5b813560078110612edf57600080fd5b600060e08284031215612fa957600080fd5b60405160e0810181811067ffffffffffffffff82111715612fda57634e487b7160e01b600052604160045260246000fd5b604052612fe683612e87565b8152612ff460208401612e9c565b602082015261300560408401612eab565b604082015261301660608401612eab565b606082015261302760808401612eab565b608082015261303860a08401612eab565b60a082015261304960c08401612eab565b60c08201529392505050565b60006020828403121561306757600080fd5b5051919050565b6000806040838503121561308157600080fd5b50508035926020909101359150565b6000602082840312156130a257600080fd5b8135612edf816132d2565b6020808252825182820181905260009190848201906040850190845b818110156130e857835160ff16835292840192918401916001016130c9565b50909695505050505050565b6020808252601390820152722737ba1037bbb734b733903a3432903830bbb760691b604082015260600190565b6020808252601490820152735461726765742063656c6c20697320656d70747960601b604082015260600190565b6000821982111561316257613162613290565b500190565b600060ff821660ff84168060ff0382111561318457613184613290565b019392505050565b6000826131a957634e487b7160e01b600052601260045260246000fd5b500490565b60008160001904831182151516156131c8576131c8613290565b500290565b600060ff821660ff84168160ff04811182151516156131ee576131ee613290565b029392505050565b600061ffff8381169083168181101561321157613211613290565b039392505050565b60008282101561322b5761322b613290565b500390565b600060ff821660ff84168082101561324a5761324a613290565b90039392505050565b600061ffff8083168181141561326b5761326b613290565b6001019392505050565b600060001982141561328957613289613290565b5060010190565b634e487b7160e01b600052601160045260246000fd5b634e487b7160e01b600052602160045260246000fd5b634e487b7160e01b600052603260045260246000fd5b60ff811681146102ec57600080fdfea26469706673582212200746676996dd229a1defe6c882f48a09ed527ab8065f0d9b419cedb5e19f27a564736f6c63430008070033",
  "linkReferences": {},
  "deployedLinkReferences": {}
}