{
  "_format": "hh-sol-artifact-1",
  "contractName": "Clash",
  "sourceName": "contracts/Clash.sol",
  "abi": [
    {
      "inputs": [
        {
          "internalType": "contract XP",
          "name": "xpAddress",
          "type": "address"
        },
        {
          "internalType": "contract SONS",
          "name": "sonsAddress",
          "type": "address"
        },
        {
          "internalType": "contract GOD",
          "name": "godAddress",
          "type": "address"
        },
        {
          "components": [
            {
              "internalType": "uint8",
              "name": "gameConstant",
              "type": "uint8"
            },
            {
              "internalType": "uint16",
              "name": "winnerPercent",
              "type": "uint16"
            },
            {
              "internalType": "uint16",
              "name": "ownerPercent",
              "type": "uint16"
            },
            {
              "internalType": "uint256",
              "name": "entranceFee",
              "type": "uint256"
            }
          ],
          "internalType": "struct ArenaDetails",
          "name": "arena",
          "type": "tuple"
        },
        {
          "internalType": "address",
          "name": "arenaOwner",
          "type": "address"
        },
        {
          "internalType": "address",
          "name": "addressOne",
          "type": "address"
        },
        {
          "internalType": "address",
          "name": "addressTwo",
          "type": "address"
        },
        {
          "internalType": "uint8[]",
          "name": "deckOne",
          "type": "uint8[]"
        },
        {
          "internalType": "uint8[]",
          "name": "deckTwo",
          "type": "uint8[]"
        }
      ],
      "stateMutability": "nonpayable",
      "type": "constructor"
    },
    {
      "anonymous": false,
      "inputs": [
        {
          "indexed": false,
          "internalType": "uint8",
          "name": "orow",
          "type": "uint8"
        },
        {
          "indexed": false,
          "internalType": "uint8",
          "name": "ocol",
          "type": "uint8"
        },
        {
          "indexed": false,
          "internalType": "uint8",
          "name": "damage",
          "type": "uint8"
        }
      ],
      "name": "AttackBase",
      "type": "event"
    },
    {
      "anonymous": false,
      "inputs": [
        {
          "indexed": false,
          "internalType": "uint8",
          "name": "orow",
          "type": "uint8"
        },
        {
          "indexed": false,
          "internalType": "uint8",
          "name": "ocol",
          "type": "uint8"
        },
        {
          "indexed": false,
          "internalType": "uint8",
          "name": "trow",
          "type": "uint8"
        },
        {
          "indexed": false,
          "internalType": "uint8",
          "name": "tcol",
          "type": "uint8"
        },
        {
          "indexed": false,
          "internalType": "uint8",
          "name": "points",
          "type": "uint8"
        }
      ],
      "name": "AttackCard",
      "type": "event"
    },
    {
      "anonymous": false,
      "inputs": [
        {
          "indexed": false,
          "internalType": "uint8",
          "name": "trow",
          "type": "uint8"
        },
        {
          "indexed": false,
          "internalType": "uint8",
          "name": "tcol",
          "type": "uint8"
        },
        {
          "indexed": false,
          "internalType": "uint8",
          "name": "points",
          "type": "uint8"
        }
      ],
      "name": "AttackGodPower",
      "type": "event"
    },
    {
      "anonymous": false,
      "inputs": [
        {
          "indexed": false,
          "internalType": "address",
          "name": "winner",
          "type": "address"
        }
      ],
      "name": "GameFinished",
      "type": "event"
    },
    {
      "anonymous": false,
      "inputs": [
        {
          "indexed": false,
          "internalType": "uint8",
          "name": "orow",
          "type": "uint8"
        },
        {
          "indexed": false,
          "internalType": "uint8",
          "name": "ocol",
          "type": "uint8"
        },
        {
          "indexed": false,
          "internalType": "uint8",
          "name": "trow",
          "type": "uint8"
        },
        {
          "indexed": false,
          "internalType": "uint8",
          "name": "tcol",
          "type": "uint8"
        },
        {
          "indexed": false,
          "internalType": "uint8",
          "name": "points",
          "type": "uint8"
        }
      ],
      "name": "HealCard",
      "type": "event"
    },
    {
      "anonymous": false,
      "inputs": [
        {
          "indexed": false,
          "internalType": "uint8",
          "name": "trow",
          "type": "uint8"
        },
        {
          "indexed": false,
          "internalType": "uint8",
          "name": "tcol",
          "type": "uint8"
        },
        {
          "indexed": false,
          "internalType": "uint8",
          "name": "points",
          "type": "uint8"
        }
      ],
      "name": "HealGodPower",
      "type": "event"
    },
    {
      "anonymous": false,
      "inputs": [
        {
          "indexed": false,
          "internalType": "uint8",
          "name": "orow",
          "type": "uint8"
        },
        {
          "indexed": false,
          "internalType": "uint8",
          "name": "ocol",
          "type": "uint8"
        },
        {
          "indexed": false,
          "internalType": "uint8",
          "name": "trow",
          "type": "uint8"
        },
        {
          "indexed": false,
          "internalType": "uint8",
          "name": "tcol",
          "type": "uint8"
        }
      ],
      "name": "MoveCard",
      "type": "event"
    },
    {
      "anonymous": false,
      "inputs": [
        {
          "indexed": false,
          "internalType": "uint8",
          "name": "col",
          "type": "uint8"
        },
        {
          "indexed": false,
          "internalType": "uint8",
          "name": "typeId",
          "type": "uint8"
        }
      ],
      "name": "PutCard",
      "type": "event"
    },
    {
      "anonymous": false,
      "inputs": [
        {
          "indexed": false,
          "internalType": "uint8",
          "name": "turn",
          "type": "uint8"
        }
      ],
      "name": "TurnFinished",
      "type": "event"
    },
    {
      "inputs": [
        {
          "internalType": "address",
          "name": "",
          "type": "address"
        }
      ],
      "name": "flashLoans",
      "outputs": [
        {
          "internalType": "uint256",
          "name": "",
          "type": "uint256"
        }
      ],
      "stateMutability": "view",
      "type": "function"
    },
    {
      "inputs": [
        {
          "internalType": "uint256",
          "name": "",
          "type": "uint256"
        },
        {
          "internalType": "uint256",
          "name": "",
          "type": "uint256"
        }
      ],
      "name": "gameBoard",
      "outputs": [
        {
          "internalType": "bool",
          "name": "occupied",
          "type": "bool"
        },
        {
          "internalType": "uint8",
          "name": "slotId",
          "type": "uint8"
        },
        {
          "internalType": "uint8",
          "name": "health",
          "type": "uint8"
        },
        {
          "internalType": "uint8",
          "name": "cardId",
          "type": "uint8"
        },
        {
          "internalType": "address",
          "name": "owner",
          "type": "address"
        }
      ],
      "stateMutability": "view",
      "type": "function"
    },
    {
      "inputs": [],
      "name": "getAllCells",
      "outputs": [
        {
          "components": [
            {
              "internalType": "bool",
              "name": "occupied",
              "type": "bool"
            },
            {
              "internalType": "uint8",
              "name": "slotId",
              "type": "uint8"
            },
            {
              "internalType": "uint8",
              "name": "health",
              "type": "uint8"
            },
            {
              "internalType": "uint8",
              "name": "cardId",
              "type": "uint8"
            },
            {
              "internalType": "address",
              "name": "owner",
              "type": "address"
            }
          ],
          "internalType": "struct Cell[]",
          "name": "",
          "type": "tuple[]"
        }
      ],
      "stateMutability": "view",
      "type": "function"
    },
    {
      "inputs": [],
      "name": "getEnemyDeck",
      "outputs": [
        {
          "internalType": "uint8[]",
          "name": "",
          "type": "uint8[]"
        }
      ],
      "stateMutability": "view",
      "type": "function"
    },
    {
      "inputs": [
        {
          "components": [
            {
              "internalType": "enum MoveType",
              "name": "moveType",
              "type": "uint8"
            },
            {
              "internalType": "uint8",
              "name": "slotId",
              "type": "uint8"
            },
            {
              "components": [
                {
                  "internalType": "uint8",
                  "name": "row",
                  "type": "uint8"
                },
                {
                  "internalType": "uint8",
                  "name": "col",
                  "type": "uint8"
                }
              ],
              "internalType": "struct Origin",
              "name": "origin",
              "type": "tuple"
            },
            {
              "components": [
                {
                  "internalType": "uint8",
                  "name": "row",
                  "type": "uint8"
                },
                {
                  "internalType": "uint8",
                  "name": "col",
                  "type": "uint8"
                }
              ],
              "internalType": "struct Target",
              "name": "target",
              "type": "tuple"
            }
          ],
          "internalType": "struct Move[]",
          "name": "moves",
          "type": "tuple[]"
        }
      ],
      "name": "playTurn",
      "outputs": [],
      "stateMutability": "nonpayable",
      "type": "function"
    }
  ],
  "bytecode": "0x6101406040526000805462ffffff191690553480156200001e57600080fd5b5060405162003e0238038062003e02833981016040819052620000419162000630565b85516001906200005390600262000741565b6200005f91906200076d565b60ff16825114801562000092575085516001906200007f90600262000741565b6200008b91906200076d565b60ff168151145b620000f55760405162461bcd60e51b815260206004820152602960248201527f4465636b2073697a6520646f65736e2774206d617463682067616d6520726571604482015268756972656d656e747360b81b606482015260840160405180910390fd5b600180546001600160a01b03199081166001600160a01b038c81169182179093556002805483168c8516179055600380549092168a8416179091556040805160808101918290526327e235e360e01b90915291861660848301528190620001ba906327e235e360a484015b60206040518083038186803b1580156200017957600080fd5b505afa1580156200018e573d6000803e3d6000fd5b505050506040513d601f19601f82011682018060405250810190620001b4919062000727565b620003ab565b60ff9081168252885181166020808401919091526001600160a01b0380891660408086019190915260609485018890528551600480548886015193890151909416620100000262010000600160b01b03199387166101000261ffff1990951692909616919091179290921716929092178255918301518051919262000246926005929091019062000400565b50506040805160808101918290526001546327e235e360e01b9092526001600160a01b03868116608483015290925082916200028c91166327e235e360a4840162000160565b60ff9081168252885181166020808401919091526001600160a01b0380881660408086019190915260609485018790528551600680548886015193890151909416620100000262010000600160b01b03199387166101000261ffff1990951692909616919091179290921716929092178255918301518051919262000318926007929091019062000400565b50505033606090811b6101205285901b6001600160601b03191661010052604086015160f090811b6001600160f01b031990811660e052602088015190911b1660c052855160f81b6001600160f81b03191660a05285516001906200037f90600262000741565b6200038b91906200076d565b60f81b6001600160f81b03191660805250620007d8975050505050505050565b60006064821015620003bf5750600a919050565b6101c2821015620003d25750600f919050565b61041a821015620003e557506014919050565b6110fe821015620003f857506019919050565b50601e919050565b82805482825590600052602060002090601f016020900481019282156200049b5791602002820160005b838211156200046a57835183826101000a81548160ff021916908360ff16021790555092602001926001016020816000010492830192600103026200042a565b8015620004995782816101000a81549060ff02191690556001016020816000010492830192600103026200046a565b505b50620004a9929150620004ad565b5090565b5b80821115620004a95760008155600101620004ae565b8051620004d181620007bf565b919050565b600082601f830112620004e857600080fd5b815160206001600160401b0380831115620005075762000507620007a9565b8260051b604051601f19603f830116810181811084821117156200052f576200052f620007a9565b604052848152838101925086840182880185018910156200054f57600080fd5b600092505b858310156200057d5762000568816200061e565b84529284019260019290920191840162000554565b50979650505050505050565b6000608082840312156200059c57600080fd5b604051608081016001600160401b0381118282101715620005c157620005c1620007a9565b604052905080620005d2836200061e565b8152620005e2602084016200060b565b6020820152620005f5604084016200060b565b6040820152606083015160608201525092915050565b805161ffff81168114620004d157600080fd5b805160ff81168114620004d157600080fd5b60008060008060008060008060006101808a8c0312156200065057600080fd5b89516200065d81620007bf565b60208b01519099506200067081620007bf565b97506200068060408b01620004c4565b9650620006918b60608c0162000589565b9550620006a160e08b01620004c4565b9450620006b26101008b01620004c4565b9350620006c36101208b01620004c4565b6101408b01519093506001600160401b0380821115620006e257600080fd5b620006f08d838e01620004d6565b93506101608c01519150808211156200070857600080fd5b50620007178c828d01620004d6565b9150509295985092959850929598565b6000602082840312156200073a57600080fd5b5051919050565b600060ff821660ff84168160ff048111821515161562000765576200076562000793565b029392505050565b600060ff821660ff8416808210156200078a576200078a62000793565b90039392505050565b634e487b7160e01b600052601160045260246000fd5b634e487b7160e01b600052604160045260246000fd5b6001600160a01b0381168114620007d557600080fd5b50565b60805160f81c60a05160f81c60c05160f01c60e05160f01c6101005160601c6101205160601c6135826200088060003960008181611db90152818161289001528181612be801528181612c9c0152612de101526000612e0201526000612e2c015260008181611df4015281816128cb0152612cc901526000610603015260008181610129015281816107d501528181610c3101528181610c6f0152611a7001526135826000f3fe608060405234801561001057600080fd5b50600436106100575760003560e01c8063112007bd1461005c5780631be80d551461007a5780633f312752146100c85780634f033fa0146100dd578063d9d881e31461010b575b600080fd5b610064610120565b6040516100719190613263565b60405180910390f35b61008d610088366004613224565b6102b2565b60408051951515865260ff94851660208701529284169285019290925290911660608301526001600160a01b0316608082015260a001610071565b6100db6100d636600461309c565b61031d565b005b6100fd6100eb36600461306c565b600b6020526000908152604090205481565b604051908152602001610071565b6101136103bd565b60405161007191906132e6565b6060600061014e7f0000000000000000000000000000000000000000000000000000000000000000806133f8565b60ff1667ffffffffffffffff81111561016957610169613527565b6040519080825280602002602001820160405280156101c257816020015b6040805160a0810182526000808252602080830182905292820181905260608201819052608082015282526000199092019101816101875790505b50905060005b81518110156102ac57600c6101de6005836133c5565b815481106101ee576101ee613511565b9060005260206000200160058261020591906134bb565b8154811061021557610215613511565b60009182526020918290206040805160a081018252919092015460ff8082161515835261010082048116948301949094526201000081048416928201929092526301000000820490921660608301526001600160a01b03600160201b909104166080820152825183908390811061028e5761028e613511565b602002602001018190525080806102a4906134a0565b9150506101c8565b50919050565b600c82815481106102c257600080fd5b9060005260206000200181815481106102da57600080fd5b60009182526020909120015460ff80821693506101008204811692506201000082048116916301000000810490911690600160201b90046001600160a01b031685565b6008546201000090046001600160a01b031633146103735760405162461bcd60e51b815260206004820152600e60248201526d2737ba103934b3b43a103a3ab93760911b60448201526064015b60405180910390fd5b60005b818110156103b05761039e83838381811061039357610393613511565b905060c00201610454565b806103a8816134a0565b915050610376565b506103b96105fd565b5050565b6004546060906201000090046001600160a01b031633146103df5760056103e2565b60075b80548060200260200160405190810160405280929190818152602001828054801561044a57602002820191906000526020600020906000905b825461010083900a900460ff1681526020600192830181810494850194909303909202910180841161041b5790505b5050505050905090565b6000610463602083018361312c565b6006811115610474576104746134fb565b14156104a5576104a261048d6040830160208401613246565b61049d6080840160608501613246565b610736565b50565b60016104b4602083018361312c565b60068111156104c5576104c56134fb565b14156104db576104a28160400182608001610b62565b60026104ea602083018361312c565b60068111156104fb576104fb6134fb565b1415610511576104a281604001826080016110e0565b6003610520602083018361312c565b6006811115610531576105316134fb565b1415610543576104a2816040016117f3565b6004610552602083018361312c565b6006811115610563576105636134fb565b1415610585576104a261057c6040830160208401613246565b82608001611c0c565b6005610594602083018361312c565b60068111156105a5576105a56134fb565b14156105bb576104a28160400182608001612175565b60066105ca602083018361312c565b60068111156105db576105db6134fb565b14156104a2576104a26105f46040830160208401613246565b8260800161270e565b600880547f0000000000000000000000000000000000000000000000000000000000000000919060019061063a908490610100900460ff166133a0565b92506101000a81548160ff021916908360ff16021790555060006001811115610665576106656134fb565b60005460ff16600181111561067c5761067c6134fb565b1461068857600061068b565b60015b6000805460ff1916600183818111156106a6576106a66134fb565b021790555060008054610100900461ffff169060016106c48361347e565b91906101000a81548161ffff021916908361ffff160217905550507fb2a5f112f4ef2b6d1ab7a886557835d90f7826318e7a0a40a34673a7248ba8de60008054906101000a900460ff16600181111561071f5761071f6134fb565b60405160ff909116815260200160405180910390a1565b6008546201000090046001600160a01b03166000908152600a6020908152604080832060ff8616845290915281205490546002916107819161ffff9182169161010090910416613421565b61ffff1610156107d35760405162461bcd60e51b815260206004820152601a60248201527f43616e27742070757420706c617965722074686973207475726e000000000000604482015260640161036a565b7f000000000000000000000000000000000000000000000000000000000000000060ff168160ff16106108395760405162461bcd60e51b815260206004820152600e60248201526d24b73b30b634b21031b7b63ab6b760911b604482015260640161036a565b600c60008154811061084d5761084d613511565b906000526020600020018160ff168154811061086b5761086b613511565b60009182526020909120015460ff16156108ba5760405162461bcd60e51b815260206004820152601060248201526f10d95b1b081a5cc81bd8d8dd5c1a595960821b604482015260640161036a565b600060086001018360ff16815481106108d5576108d5613511565b6000918252602080832090820401546003546040516348c4698960e11b8152601f9093166101000a90910460ff166004830181905293506001600160a01b031690639188d3129060240160e06040518083038186803b15801561093757600080fd5b505afa15801561094b573d6000803e3d6000fd5b505050506040513d601f19601f8201168201806040525081019061096f919061314d565b608081015160085491925060ff90811661010090920416116109ca5760405162461bcd60e51b8152602060048201526014602482015273115b995c99de481b9bdd081cdd59999a58d95b9d60621b604482015260640161036a565b6080810151600880546001906109e9908490610100900460ff1661345b565b92506101000a81548160ff021916908360ff1602179055506040518060a001604052806001151581526020018560ff1681526020018260a0015160ff1681526020018360ff168152602001600860000160029054906101000a90046001600160a01b03166001600160a01b0316815250600c600081548110610a6d57610a6d613511565b906000526020600020018460ff1681548110610a8b57610a8b613511565b600091825260209182902083519101805484840151604080870151606088015160809098015161ffff1990941695151561ff0019169590951761010060ff938416021763ffff00001916620100009583169590950263ff00000019169490941763010000009682169690960295909517640100000000600160c01b031916600160201b6001600160a01b039092169190910217905580518684168152928516918301919091527f2a102de3851f9d59b8d145c1ce90b60cb023d819273a14fd3b25e7f0cec7ed4e910160405180910390a150505050565b6000600c610b736020850185613246565b60ff1681548110610b8657610b86613511565b90600052602060002001836020016020810190610ba39190613246565b60ff1681548110610bb657610bb6613511565b60009182526020918290206040805160a081018252929091015460ff8082161515845261010082048116848601526201000080830482169385019390935263010000008204811660608501526001600160a01b03600160201b90920482166080850152600454600854949650938390048216929093041614917f000000000000000000000000000000000000000000000000000000000000000090911690610c6090850185613246565b60ff16108015610ca4575060ff7f000000000000000000000000000000000000000000000000000000000000000016610c9f6040850160208601613246565b60ff16105b610ce45760405162461bcd60e51b8152602060048201526011602482015270546172676574206f66662d626f756e647360781b604482015260640161036a565b60808201516001600160a01b03163314610d385760405162461bcd60e51b81526020600482015260156024820152742737ba1037bbb734b733903a34329037b934b3b4b760591b604482015260640161036a565b600854600161010090910460ff1611610d895760405162461bcd60e51b8152602060048201526013602482015272115b995c99de481a5b9cdd59999a58da595b9d606a1b604482015260640161036a565b600081610db957610d9d6020850185613246565b610daa6020870187613246565b610db4919061345b565b610ddd565b610dc66020860186613246565b610dd36020860186613246565b610ddd919061345b565b90506000610df16040870160208801613246565b60ff16610e046040870160208801613246565b60ff161015610e3c57610e1d6040860160208701613246565b610e2d6040880160208901613246565b610e37919061345b565b610e66565b610e4c6040870160208801613246565b610e5c6040870160208801613246565b610e66919061345b565b90508160ff1660011480610e7d57508060ff166001145b610ebc5760405162461bcd60e51b815260206004820152601060248201526f125b1b1959d85b081b5bdd995b595b9d60821b604482015260640161036a565b60088054600191908290610ed9908290610100900460ff1661345b565b92506101000a81548160ff021916908360ff16021790555083600c866000016020810190610f079190613246565b60ff1681548110610f1a57610f1a613511565b90600052602060002001866020016020810190610f379190613246565b60ff1681548110610f4a57610f4a613511565b6000918252602091829020835191018054848401516040860151606087015160809097015161ffff1990931694151561ff0019169490941761010060ff928316021763ffff00001916620100009482169490940263ff0000001916939093176301000000939095169290920293909317640100000000600160c01b031916600160201b6001600160a01b039092169190910217909155600c90610fef90880188613246565b60ff168154811061100257611002613511565b9060005260206000200186602001602081019061101f9190613246565b60ff168154811061103257611032613511565b60009182526020918290200180546001600160c01b03191690557fd46e1b079f3442f942e1744a9c599b87a4a96c160cda79caa418bd5e4632a1c29061107a90880188613246565b61108a6040890160208a01613246565b6110976020890189613246565b6110a760408a0160208b01613246565b6040805160ff958616815293851660208501529184169183019190915290911660608201526080015b60405180910390a1505050505050565b6000600c6110f16020850185613246565b60ff168154811061110457611104613511565b906000526020600020018360200160208101906111219190613246565b60ff168154811061113457611134613511565b600091825260208083206040805160a081018252939091015460ff808216151585526101008204811685850152620100008204811692850192909252630100000081049091166060840152600160201b90046001600160a01b03166080830152909250600c906111a690850185613246565b60ff16815481106111b9576111b9613511565b906000526020600020018360200160208101906111d69190613246565b60ff16815481106111e9576111e9613511565b60009182526020918290206040805160a081018252919092015460ff8082161515835261010082048116948301949094526201000081048416928201929092526301000000820490921660608301526001600160a01b03600160201b90910481166080808401919091528401519192501633146112785760405162461bcd60e51b815260040161036a9061332d565b80516112c65760405162461bcd60e51b815260206004820152601a60248201527f41747461636b696e67206f6e20616e20656d7074792063656c6c000000000000604482015260640161036a565b60808101516001600160a01b031633141561131c5760405162461bcd60e51b815260206004820152601660248201527541747461636b696e67206f6e206f776e2063656c6c7360501b604482015260640161036a565b60035460608301516040516348c4698960e11b815260ff90911660048201526000916001600160a01b031690639188d3129060240160e06040518083038186803b15801561136957600080fd5b505afa15801561137d573d6000803e3d6000fd5b505050506040513d601f19601f820116820180604052508101906113a1919061314d565b90506000816020015160018111156113bb576113bb6134fb565b146113fc5760405162461bcd60e51b81526020600482015260116024820152704e6f74206120636172642061747461636b60781b604482015260640161036a565b60045460085462010000918290046001600160a01b0390811692909104161460008161144b5761142f6020870187613246565b61143c6020890189613246565b611446919061345b565b61146f565b6114586020880188613246565b6114656020880188613246565b61146f919061345b565b905060006114836040890160208a01613246565b60ff166114966040890160208a01613246565b60ff1610156114ce576114af6040880160208901613246565b6114bf60408a0160208b01613246565b6114c9919061345b565b6114f8565b6114de6040890160208a01613246565b6114ee6040890160208a01613246565b6114f8919061345b565b9050836060015160ff168260ff161115801561151e5750836040015160ff168160ff1611155b6115635760405162461bcd60e51b8152602060048201526016602482015275546172676574206973206f7574206f662072616e676560501b604482015260640161036a565b600854600161010090910460ff16116115be5760405162461bcd60e51b815260206004820152601c60248201527f4e6f7420656e6f75676820656e6572677920666f722061747461636b00000000604482015260640161036a565b600880546001919082906115db908290610100900460ff1661345b565b92506101000a81548160ff021916908360ff1602179055508360c0015160ff16856040015160ff16116116bf576000805460808701516001600160a01b03168252600a60209081526040808420828a015160ff1685528252909220805461010090920461ffff1661ffff19909216919091179055600c9061165e90890189613246565b60ff168154811061167157611671613511565b9060005260206000200187602001602081019061168e9190613246565b60ff16815481106116a1576116a1613511565b600091825260209091200180546001600160c01b0319169055611753565b60c0840151600c6116d360208a018a613246565b60ff16815481106116e6576116e6613511565b906000526020600020018860200160208101906117039190613246565b60ff168154811061171657611716613511565b6000918252602090912001805460029061173a90849062010000900460ff1661345b565b92506101000a81548160ff021916908360ff1602179055505b7f821fa0d3357caf1ed6e818f6af88d667dbb5e5afc86fd1dd63c43c5d9cb668de61178160208a018a613246565b61179160408b0160208c01613246565b61179e60208b018b613246565b6117ae60408c0160208d01613246565b60c08901516040805160ff9687168152948616602086015292851684840152908416606084015292909216608082015290519081900360a00190a15050505050505050565b60008060005460ff16600181111561180d5761180d6134fb565b1461181957600461181c565b60065b90506000600c61182f6020850185613246565b60ff168154811061184257611842613511565b9060005260206000200183602001602081019061185f9190613246565b60ff168154811061187257611872613511565b600091825260208083206040805160a081018252939091015460ff80821615158552610100820481169385019390935262010000810483168483015263010000008104909216606084018190526001600160a01b03600160201b9093048316608085015260035491516348c4698960e11b815260048101919091529294501690639188d3129060240160e06040518083038186803b15801561191357600080fd5b505afa158015611927573d6000803e3d6000fd5b505050506040513d601f19601f8201168201806040525081019061194b919061314d565b60808301519091506001600160a01b0316331461197a5760405162461bcd60e51b815260040161036a9061332d565b600081602001516001811115611992576119926134fb565b146119d65760405162461bcd60e51b81526020600482015260146024820152732737ba1030b71030ba3a30b1b590383630bcb2b960611b604482015260640161036a565b600854600161010090910460ff1611611a255760405162461bcd60e51b81526020600482015260116024820152704e6f7420656e6f75676820656e6572677960781b604482015260640161036a565b60045460085462010000918290046001600160a01b0390811692909104161480611a6757606082015160ff16611a5e6020870187613246565b60ff1610611aae565b606082015160ff7f00000000000000000000000000000000000000000000000000000000000000001690611a9e6020880188613246565b611aa891906133a0565b60ff1610155b611af15760405162461bcd60e51b815260206004820152601460248201527342617365206973206f7574206f662072616e676560601b604482015260640161036a565b60088054600191908290611b0e908290610100900460ff1661345b565b82546101009290920a60ff818102199093169183160217909155855460c0850151908216911611159050611b67576008548454611b62916001600160a01b0362010000918290048116929190910416612bce565b611b9a565b60c082015184548590600090611b8190849060ff1661345b565b92506101000a81548160ff021916908360ff1602179055505b7f9514b0a645ab311710078885b3d1aa7b7c941ade5dba24715646519e625ec858611bc86020870187613246565b611bd86040880160208901613246565b60c08501516040805160ff948516815292841660208401529216918101919091526060015b60405180910390a15050505050565b60008060005460ff166001811115611c2657611c266134fb565b14611c32576004611c35565b60065b90506000600c611c486020850185613246565b60ff1681548110611c5b57611c5b613511565b90600052602060002001836020016020810190611c789190613246565b60ff1681548110611c8b57611c8b613511565b600091825260208083206040805160a081018252939091015460ff8082161515855261010082048116938501939093526201000081048316918401919091526301000000810482166060840152600160201b90046001600160a01b03908116608084015260035460098054949650911692639188d312928916908110611d1357611d13613511565b60009182526020918290209181049091015460405160e084901b6001600160e01b0319168152601f9092166101000a900460ff16600482015260240160e06040518083038186803b158015611d6757600080fd5b505afa158015611d7b573d6000803e3d6000fd5b505050506040513d601f19601f82011682018060405250810190611d9f919061314d565b600254604051636eb1769f60e11b81526001600160a01b037f0000000000000000000000000000000000000000000000000000000000000000811660048301523060248301529293506000926103e89261ffff7f0000000000000000000000000000000000000000000000000000000000000000169291169063dd62ed3e9060440160206040518083038186803b158015611e3957600080fd5b505afa158015611e4d573d6000803e3d6000fd5b505050506040513d601f19601f82011682018060405250810190611e71919061320b565b611e7b91906133d9565b611e8591906133c5565b8351909150611ea65760405162461bcd60e51b815260040161036a9061335a565b835460808401516001600160a01b03908116620100009092041614611f035760405162461bcd60e51b81526020600482015260136024820152722bb937b733903a30b933b2ba10383630bcb2b960691b604482015260640161036a565b336000908152600b6020526040902054811015611f625760405162461bcd60e51b815260206004820181905260248201527f4e6f2062616c616e6365206c65667420746f2075736520676f6420706f776572604482015260640161036a565b611f6d6005826133c5565b336000908152600b602052604081208054909190611f8c908490613388565b925050819055508160c0015160ff16836040015160ff1611612062576000805485546201000090046001600160a01b03168252600a602090815260408084208783015160ff1685528252909220805461010090920461ffff1661ffff19909216919091179055600c9061200190870187613246565b60ff168154811061201457612014613511565b906000526020600020018560200160208101906120319190613246565b60ff168154811061204457612044613511565b600091825260209091200180546001600160c01b0319169055612102565b60038260c0015161207391906133f8565b600c6120826020880188613246565b60ff168154811061209557612095613511565b906000526020600020018660200160208101906120b29190613246565b60ff16815481106120c5576120c5613511565b600091825260209091200180546002906120e990849062010000900460ff1661345b565b92506101000a81548160ff021916908360ff1602179055505b7fad81c2d8ff449019cfaf2eda745547aae68efd585520cf7bbad02ca0ff57aaf16121306020870187613246565b6121406040880160208901613246565b60038560c0015161215191906133f8565b6040805160ff948516815292841660208401529216918101919091526060016110d0565b6000600c6121866020850185613246565b60ff168154811061219957612199613511565b906000526020600020018360200160208101906121b69190613246565b60ff16815481106121c9576121c9613511565b600091825260208083206040805160a081018252939091015460ff808216151585526101008204811685850152620100008204811692850192909252630100000081049091166060840152600160201b90046001600160a01b03166080830152909250600c9061223b90850185613246565b60ff168154811061224e5761224e613511565b9060005260206000200183602001602081019061226b9190613246565b60ff168154811061227e5761227e613511565b600091825260208083206040805160a081018252939091015460ff8082161515855261010082048116938501939093526201000081048316848301526301000000810483166060808601919091526001600160a01b03600160201b909204821660808601526003549088015192516348c4698960e11b8152929093166004830152929450911690639188d3129060240160e06040518083038186803b15801561232657600080fd5b505afa15801561233a573d6000803e3d6000fd5b505050506040513d601f19601f8201168201806040525081019061235e919061314d565b60808401519091506001600160a01b0316331461238d5760405162461bcd60e51b815260040161036a9061332d565b81516123ab5760405162461bcd60e51b815260040161036a9061335a565b60808201516001600160a01b031633146123ff5760405162461bcd60e51b8152602060048201526015602482015274139bdd081bdddb9a5b99c81d1a19481d185c99d95d605a1b604482015260640161036a565b600181602001516001811115612417576124176134fb565b146124565760405162461bcd60e51b815260206004820152600f60248201526e139bdd0818481a19585b0818d85c99608a1b604482015260640161036a565b60045460085462010000918290046001600160a01b039081169290910416146000816124a5576124896020870187613246565b6124966020890189613246565b6124a0919061345b565b6124c9565b6124b26020880188613246565b6124bf6020880188613246565b6124c9919061345b565b905060006124dd6040890160208a01613246565b60ff166124f06040890160208a01613246565b60ff161015612528576125096040880160208901613246565b61251960408a0160208b01613246565b612523919061345b565b612552565b6125386040890160208a01613246565b6125486040890160208a01613246565b612552919061345b565b9050836060015160ff168260ff16111580156125785750836040015160ff168160ff1611155b6125bd5760405162461bcd60e51b8152602060048201526016602482015275546172676574206973206f7574206f662072616e676560501b604482015260640161036a565b600854600161010090910460ff161161260c5760405162461bcd60e51b81526020600482015260116024820152704e6f7420656e6f75676820656e6572677960781b604482015260640161036a565b60088054600191908290612629908290610100900460ff1661345b565b92506101000a81548160ff021916908360ff1602179055508360c00151600c88600001602081019061265b9190613246565b60ff168154811061266e5761266e613511565b9060005260206000200188602001602081019061268b9190613246565b60ff168154811061269e5761269e613511565b600091825260209091200180546002906126c290849062010000900460ff166133a0565b92506101000a81548160ff021916908360ff1602179055507f8755e3de7285d4f55c28476287892f02fa00fe2a9476fd9f76aa96ddce5a12378860000160208101906117819190613246565b6000600c61271f6020840184613246565b60ff168154811061273257612732613511565b9060005260206000200182602001602081019061274f9190613246565b60ff168154811061276257612762613511565b600091825260208083206040805160a081018252939091015460ff8082161515855261010082048116938501939093526201000081048316918401919091526301000000810482166060840152600160201b90046001600160a01b03908116608084015260035460098054949650911692639188d3129288169081106127ea576127ea613511565b60009182526020918290209181049091015460405160e084901b6001600160e01b0319168152601f9092166101000a900460ff16600482015260240160e06040518083038186803b15801561283e57600080fd5b505afa158015612852573d6000803e3d6000fd5b505050506040513d601f19601f82011682018060405250810190612876919061314d565b600254604051636eb1769f60e11b81526001600160a01b037f0000000000000000000000000000000000000000000000000000000000000000811660048301523060248301529293506000926103e89261ffff7f0000000000000000000000000000000000000000000000000000000000000000169291169063dd62ed3e9060440160206040518083038186803b15801561291057600080fd5b505afa158015612924573d6000803e3d6000fd5b505050506040513d601f19601f82011682018060405250810190612948919061320b565b61295291906133d9565b61295c91906133c5565b336000908152600b60205260409020549091508110156129be5760405162461bcd60e51b815260206004820181905260248201527f4e6f2062616c616e6365206c65667420746f2075736520676f6420706f776572604482015260640161036a565b6001826020015160018111156129d6576129d66134fb565b14612a155760405162461bcd60e51b815260206004820152600f60248201526e139bdd0818481a19585b0818d85c99608a1b604482015260640161036a565b8251612a335760405162461bcd60e51b815260040161036a9061335a565b60808301516001600160a01b03163314612a875760405162461bcd60e51b8152602060048201526015602482015274139bdd081bdddb9a5b99c81d1a19481d185c99d95d605a1b604482015260640161036a565b612a926005826133c5565b336000908152600b602052604081208054909190612ab1908490613388565b909155505060c0820151612ac7906003906133f8565b600c612ad66020870187613246565b60ff1681548110612ae957612ae9613511565b90600052602060002001856020016020810190612b069190613246565b60ff1681548110612b1957612b19613511565b60009182526020909120018054600290612b3d90849062010000900460ff166133a0565b92506101000a81548160ff021916908360ff1602179055507fb66f84be78126463140b4fcd1f22ebe400bb165705bbfdd215781a0a0678660e846000016020810190612b899190613246565b612b996040870160208801613246565b60038560c00151612baa91906133f8565b6040805160ff94851681529284166020840152921691810191909152606001611bfd565b600254604051636eb1769f60e11b81526001600160a01b037f000000000000000000000000000000000000000000000000000000000000000081166004830152306024830152600092169063dd62ed3e9060440160206040518083038186803b158015612c3a57600080fd5b505afa158015612c4e573d6000803e3d6000fd5b505050506040513d601f19601f82011682018060405250810190612c72919061320b565b6002546001600160a01b038581166000908152600b602052604090205492935016906323b872dd907f00000000000000000000000000000000000000000000000000000000000000009086906103e8612cef61ffff7f000000000000000000000000000000000000000000000000000000000000000016886133d9565b612cf991906133c5565b612d039190613444565b6040516001600160e01b031960e086901b1681526001600160a01b0393841660048201529290911660248301526044820152606401602060405180830381600087803b158015612d5257600080fd5b505af1158015612d66573d6000803e3d6000fd5b505050506040513d601f19601f82011682018060405250810190612d8a9190613111565b612dce5760405162461bcd60e51b815260206004820152601560248201527415da5b9b995c881c185e5b595b9d0819985a5b1959605a1b604482015260640161036a565b6002546001600160a01b03166323b872dd7f00000000000000000000000000000000000000000000000000000000000000007f00000000000000000000000000000000000000000000000000000000000000006103e8612e5261ffff7f000000000000000000000000000000000000000000000000000000000000000016876133d9565b612e5c91906133c5565b6040516001600160e01b031960e086901b1681526001600160a01b0393841660048201529290911660248301526044820152606401602060405180830381600087803b158015612eab57600080fd5b505af1158015612ebf573d6000803e3d6000fd5b505050506040513d601f19601f82011682018060405250810190612ee39190613111565b612f2f5760405162461bcd60e51b815260206004820152601a60248201527f4172656e61206f776e6572207061796d656e74206661696c6564000000000000604482015260640161036a565b6001546040516340c10f1960e01b81526001600160a01b038581166004830152600a6024830152909116906340c10f1990604401600060405180830381600087803b158015612f7d57600080fd5b505af1158015612f91573d6000803e3d6000fd5b50506001546040516340c10f1960e01b81526001600160a01b0386811660048301526002602483015290911692506340c10f199150604401600060405180830381600087803b158015612fe357600080fd5b505af1158015612ff7573d6000803e3d6000fd5b50506040516001600160a01b03861681527f1728dd43546edd06fabfe796e5b641a151aa90998bfd1b1ec0ae98c6e77084599250602001905060405180910390a1505050565b8051801515811461304d57600080fd5b919050565b80516002811061304d57600080fd5b805161304d8161353d565b60006020828403121561307e57600080fd5b81356001600160a01b038116811461309557600080fd5b9392505050565b600080602083850312156130af57600080fd5b823567ffffffffffffffff808211156130c757600080fd5b818501915085601f8301126130db57600080fd5b8135818111156130ea57600080fd5b86602060c0830285010111156130ff57600080fd5b60209290920196919550909350505050565b60006020828403121561312357600080fd5b6130958261303d565b60006020828403121561313e57600080fd5b81356007811061309557600080fd5b600060e0828403121561315f57600080fd5b60405160e0810181811067ffffffffffffffff8211171561319057634e487b7160e01b600052604160045260246000fd5b60405261319c8361303d565b81526131aa60208401613052565b60208201526131bb60408401613061565b60408201526131cc60608401613061565b60608201526131dd60808401613061565b60808201526131ee60a08401613061565b60a08201526131ff60c08401613061565b60c08201529392505050565b60006020828403121561321d57600080fd5b5051919050565b6000806040838503121561323757600080fd5b50508035926020909101359150565b60006020828403121561325857600080fd5b81356130958161353d565b602080825282518282018190526000919060409081850190868401855b828110156132d95781518051151585528681015160ff9081168887015286820151811687870152606080830151909116908601526080908101516001600160a01b03169085015260a09093019290850190600101613280565b5091979650505050505050565b6020808252825182820181905260009190848201906040850190845b8181101561332157835160ff1683529284019291840191600101613302565b50909695505050505050565b6020808252601390820152722737ba1037bbb734b733903a3432903830bbb760691b604082015260600190565b6020808252601490820152735461726765742063656c6c20697320656d70747960601b604082015260600190565b6000821982111561339b5761339b6134cf565b500190565b600060ff821660ff84168060ff038211156133bd576133bd6134cf565b019392505050565b6000826133d4576133d46134e5565b500490565b60008160001904831182151516156133f3576133f36134cf565b500290565b600060ff821660ff84168160ff0481118215151615613419576134196134cf565b029392505050565b600061ffff8381169083168181101561343c5761343c6134cf565b039392505050565b600082821015613456576134566134cf565b500390565b600060ff821660ff841680821015613475576134756134cf565b90039392505050565b600061ffff80831681811415613496576134966134cf565b6001019392505050565b60006000198214156134b4576134b46134cf565b5060010190565b6000826134ca576134ca6134e5565b500690565b634e487b7160e01b600052601160045260246000fd5b634e487b7160e01b600052601260045260246000fd5b634e487b7160e01b600052602160045260246000fd5b634e487b7160e01b600052603260045260246000fd5b634e487b7160e01b600052604160045260246000fd5b60ff811681146104a257600080fdfea2646970667358221220394dd8560ce93930618cfb23301c9ec9e1e6d24fb73b5cbbb80438fa3e4d0dd364736f6c63430008070033",
  "linkReferences": {},
  "deployedLinkReferences": {}
}