{
  "_format": "hh-sol-artifact-1",
  "contractName": "Clash",
  "sourceName": "contracts/Clash.sol",
  "abi": [
    {
      "inputs": [
        {
          "internalType": "contract XP",
          "name": "xpAddress",
          "type": "address"
        },
        {
          "internalType": "contract SONS",
          "name": "sonsAddress",
          "type": "address"
        },
        {
          "internalType": "contract GOD",
          "name": "godAddress",
          "type": "address"
        },
        {
          "components": [
            {
              "internalType": "uint8",
              "name": "gameConstant",
              "type": "uint8"
            },
            {
              "internalType": "uint16",
              "name": "winnerPercent",
              "type": "uint16"
            },
            {
              "internalType": "uint16",
              "name": "ownerPercent",
              "type": "uint16"
            },
            {
              "internalType": "uint256",
              "name": "entranceFee",
              "type": "uint256"
            }
          ],
          "internalType": "struct ArenaDetails",
          "name": "arena",
          "type": "tuple"
        },
        {
          "internalType": "address",
          "name": "arenaOwner",
          "type": "address"
        },
        {
          "internalType": "address",
          "name": "addressOne",
          "type": "address"
        },
        {
          "internalType": "address",
          "name": "addressTwo",
          "type": "address"
        },
        {
          "internalType": "uint8[]",
          "name": "deckOne",
          "type": "uint8[]"
        },
        {
          "internalType": "uint8[]",
          "name": "deckTwo",
          "type": "uint8[]"
        }
      ],
      "stateMutability": "nonpayable",
      "type": "constructor"
    },
    {
      "anonymous": false,
      "inputs": [
        {
          "indexed": false,
          "internalType": "uint8",
          "name": "orow",
          "type": "uint8"
        },
        {
          "indexed": false,
          "internalType": "uint8",
          "name": "ocol",
          "type": "uint8"
        },
        {
          "indexed": false,
          "internalType": "uint8",
          "name": "damage",
          "type": "uint8"
        }
      ],
      "name": "AttackBase",
      "type": "event"
    },
    {
      "anonymous": false,
      "inputs": [
        {
          "indexed": false,
          "internalType": "uint8",
          "name": "orow",
          "type": "uint8"
        },
        {
          "indexed": false,
          "internalType": "uint8",
          "name": "ocol",
          "type": "uint8"
        },
        {
          "indexed": false,
          "internalType": "uint8",
          "name": "trow",
          "type": "uint8"
        },
        {
          "indexed": false,
          "internalType": "uint8",
          "name": "tcol",
          "type": "uint8"
        },
        {
          "indexed": false,
          "internalType": "uint8",
          "name": "points",
          "type": "uint8"
        }
      ],
      "name": "AttackCard",
      "type": "event"
    },
    {
      "anonymous": false,
      "inputs": [
        {
          "indexed": false,
          "internalType": "uint8",
          "name": "trow",
          "type": "uint8"
        },
        {
          "indexed": false,
          "internalType": "uint8",
          "name": "tcol",
          "type": "uint8"
        },
        {
          "indexed": false,
          "internalType": "uint8",
          "name": "points",
          "type": "uint8"
        }
      ],
      "name": "AttackGodPower",
      "type": "event"
    },
    {
      "anonymous": false,
      "inputs": [
        {
          "indexed": false,
          "internalType": "address",
          "name": "winner",
          "type": "address"
        }
      ],
      "name": "GameFinished",
      "type": "event"
    },
    {
      "anonymous": false,
      "inputs": [
        {
          "indexed": false,
          "internalType": "uint8",
          "name": "orow",
          "type": "uint8"
        },
        {
          "indexed": false,
          "internalType": "uint8",
          "name": "ocol",
          "type": "uint8"
        },
        {
          "indexed": false,
          "internalType": "uint8",
          "name": "trow",
          "type": "uint8"
        },
        {
          "indexed": false,
          "internalType": "uint8",
          "name": "tcol",
          "type": "uint8"
        },
        {
          "indexed": false,
          "internalType": "uint8",
          "name": "points",
          "type": "uint8"
        }
      ],
      "name": "HealCard",
      "type": "event"
    },
    {
      "anonymous": false,
      "inputs": [
        {
          "indexed": false,
          "internalType": "uint8",
          "name": "trow",
          "type": "uint8"
        },
        {
          "indexed": false,
          "internalType": "uint8",
          "name": "tcol",
          "type": "uint8"
        },
        {
          "indexed": false,
          "internalType": "uint8",
          "name": "points",
          "type": "uint8"
        }
      ],
      "name": "HealGodPower",
      "type": "event"
    },
    {
      "anonymous": false,
      "inputs": [
        {
          "indexed": false,
          "internalType": "uint8",
          "name": "orow",
          "type": "uint8"
        },
        {
          "indexed": false,
          "internalType": "uint8",
          "name": "ocol",
          "type": "uint8"
        },
        {
          "indexed": false,
          "internalType": "uint8",
          "name": "trow",
          "type": "uint8"
        },
        {
          "indexed": false,
          "internalType": "uint8",
          "name": "tcol",
          "type": "uint8"
        }
      ],
      "name": "MoveCard",
      "type": "event"
    },
    {
      "anonymous": false,
      "inputs": [
        {
          "indexed": false,
          "internalType": "uint8",
          "name": "col",
          "type": "uint8"
        },
        {
          "indexed": false,
          "internalType": "uint8",
          "name": "typeId",
          "type": "uint8"
        }
      ],
      "name": "PutCard",
      "type": "event"
    },
    {
      "anonymous": false,
      "inputs": [
        {
          "indexed": false,
          "internalType": "uint8",
          "name": "turn",
          "type": "uint8"
        }
      ],
      "name": "TurnFinished",
      "type": "event"
    },
    {
      "inputs": [
        {
          "internalType": "address",
          "name": "",
          "type": "address"
        }
      ],
      "name": "flashLoans",
      "outputs": [
        {
          "internalType": "uint256",
          "name": "",
          "type": "uint256"
        }
      ],
      "stateMutability": "view",
      "type": "function"
    },
    {
      "inputs": [
        {
          "internalType": "uint256",
          "name": "",
          "type": "uint256"
        },
        {
          "internalType": "uint256",
          "name": "",
          "type": "uint256"
        }
      ],
      "name": "gameBoard",
      "outputs": [
        {
          "internalType": "bool",
          "name": "occupied",
          "type": "bool"
        },
        {
          "internalType": "uint8",
          "name": "slotId",
          "type": "uint8"
        },
        {
          "internalType": "uint8",
          "name": "health",
          "type": "uint8"
        },
        {
          "internalType": "uint8",
          "name": "cardId",
          "type": "uint8"
        },
        {
          "internalType": "address",
          "name": "owner",
          "type": "address"
        }
      ],
      "stateMutability": "view",
      "type": "function"
    },
    {
      "inputs": [
        {
          "components": [
            {
              "internalType": "enum MoveType",
              "name": "moveType",
              "type": "uint8"
            },
            {
              "internalType": "uint8",
              "name": "slotId",
              "type": "uint8"
            },
            {
              "components": [
                {
                  "internalType": "uint8",
                  "name": "row",
                  "type": "uint8"
                },
                {
                  "internalType": "uint8",
                  "name": "col",
                  "type": "uint8"
                }
              ],
              "internalType": "struct Origin",
              "name": "origin",
              "type": "tuple"
            },
            {
              "components": [
                {
                  "internalType": "uint8",
                  "name": "row",
                  "type": "uint8"
                },
                {
                  "internalType": "uint8",
                  "name": "col",
                  "type": "uint8"
                }
              ],
              "internalType": "struct Target",
              "name": "target",
              "type": "tuple"
            }
          ],
          "internalType": "struct Move[]",
          "name": "moves",
          "type": "tuple[]"
        }
      ],
      "name": "playTurn",
      "outputs": [],
      "stateMutability": "nonpayable",
      "type": "function"
    }
  ],
  "bytecode": "0x6101406040526000805462ffffff191690553480156200001e57600080fd5b5060405162003a9238038062003a92833981016040819052620000419162000630565b85516001906200005390600262000741565b6200005f91906200076d565b60ff16825114801562000092575085516001906200007f90600262000741565b6200008b91906200076d565b60ff168151145b620000f55760405162461bcd60e51b815260206004820152602960248201527f4465636b2073697a6520646f65736e2774206d617463682067616d6520726571604482015268756972656d656e747360b81b606482015260840160405180910390fd5b600180546001600160a01b03199081166001600160a01b038c81169182179093556002805483168c8516179055600380549092168a8416179091556040805160808101918290526327e235e360e01b90915291861660848301528190620001ba906327e235e360a484015b60206040518083038186803b1580156200017957600080fd5b505afa1580156200018e573d6000803e3d6000fd5b505050506040513d601f19601f82011682018060405250810190620001b4919062000727565b620003ab565b60ff9081168252885181166020808401919091526001600160a01b0380891660408086019190915260609485018890528551600480548886015193890151909416620100000262010000600160b01b03199387166101000261ffff1990951692909616919091179290921716929092178255918301518051919262000246926005929091019062000400565b50506040805160808101918290526001546327e235e360e01b9092526001600160a01b03868116608483015290925082916200028c91166327e235e360a4840162000160565b60ff9081168252885181166020808401919091526001600160a01b0380881660408086019190915260609485018790528551600680548886015193890151909416620100000262010000600160b01b03199387166101000261ffff1990951692909616919091179290921716929092178255918301518051919262000318926007929091019062000400565b50505033606090811b6101205285901b6001600160601b03191661010052604086015160f090811b6001600160f01b031990811660e052602088015190911b1660c052855160f81b6001600160f81b03191660a05285516001906200037f90600262000741565b6200038b91906200076d565b60f81b6001600160f81b03191660805250620007d8975050505050505050565b60006064821015620003bf5750600a919050565b6101c2821015620003d25750600f919050565b61041a821015620003e557506014919050565b6110fe821015620003f857506019919050565b50601e919050565b82805482825590600052602060002090601f016020900481019282156200049b5791602002820160005b838211156200046a57835183826101000a81548160ff021916908360ff16021790555092602001926001016020816000010492830192600103026200042a565b8015620004995782816101000a81549060ff02191690556001016020816000010492830192600103026200046a565b505b50620004a9929150620004ad565b5090565b5b80821115620004a95760008155600101620004ae565b8051620004d181620007bf565b919050565b600082601f830112620004e857600080fd5b815160206001600160401b0380831115620005075762000507620007a9565b8260051b604051601f19603f830116810181811084821117156200052f576200052f620007a9565b604052848152838101925086840182880185018910156200054f57600080fd5b600092505b858310156200057d5762000568816200061e565b84529284019260019290920191840162000554565b50979650505050505050565b6000608082840312156200059c57600080fd5b604051608081016001600160401b0381118282101715620005c157620005c1620007a9565b604052905080620005d2836200061e565b8152620005e2602084016200060b565b6020820152620005f5604084016200060b565b6040820152606083015160608201525092915050565b805161ffff81168114620004d157600080fd5b805160ff81168114620004d157600080fd5b60008060008060008060008060006101808a8c0312156200065057600080fd5b89516200065d81620007bf565b60208b01519099506200067081620007bf565b97506200068060408b01620004c4565b9650620006918b60608c0162000589565b9550620006a160e08b01620004c4565b9450620006b26101008b01620004c4565b9350620006c36101208b01620004c4565b6101408b01519093506001600160401b0380821115620006e257600080fd5b620006f08d838e01620004d6565b93506101608c01519150808211156200070857600080fd5b50620007178c828d01620004d6565b9150509295985092959850929598565b6000602082840312156200073a57600080fd5b5051919050565b600060ff821660ff84168160ff048111821515161562000765576200076562000793565b029392505050565b600060ff821660ff8416808210156200078a576200078a62000793565b90039392505050565b634e487b7160e01b600052601160045260246000fd5b634e487b7160e01b600052604160045260246000fd5b6001600160a01b0381168114620007d557600080fd5b50565b60805160f81c60a05160f81c60c05160f01c60e05160f01c6101005160601c6101205160601c6132196200087960003960008181611b4c015281816126230152818161297b01528181612a2f0152612b7401526000612b9501526000612bbf015260008181611b870152818161265e0152612a5c01526000610396015260008181610568015281816109c401528181610a02015261180301526132196000f3fe608060405234801561001057600080fd5b50600436106100415760003560e01c80631be80d55146100465780633f312752146100995780634f033fa0146100ae575b600080fd5b610059610054366004612fb7565b6100dc565b60408051951515865260ff94851660208701529284169285019290925290911660608301526001600160a01b0316608082015260a0015b60405180910390f35b6100ac6100a7366004612e2f565b610147565b005b6100ce6100bc366004612dff565b600b6020526000908152604090205481565b604051908152602001610090565b600c82815481106100ec57600080fd5b90600052602060002001818154811061010457600080fd5b60009182526020909120015460ff80821693506101008204811692506201000082048116916301000000810490911690600160201b90046001600160a01b031685565b6008546201000090046001600160a01b0316331461019d5760405162461bcd60e51b815260206004820152600e60248201526d2737ba103934b3b43a103a3ab93760911b60448201526064015b60405180910390fd5b60005b818110156101da576101c88383838181106101bd576101bd6131be565b905060c002016101e7565b806101d281613177565b9150506101a0565b506101e3610390565b5050565b60006101f66020830183612ebf565b6006811115610207576102076131a8565b1415610238576102356102206040830160208401612fd9565b6102306080840160608501612fd9565b6104c9565b50565b60016102476020830183612ebf565b6006811115610258576102586131a8565b141561026e5761023581604001826080016108f5565b600261027d6020830183612ebf565b600681111561028e5761028e6131a8565b14156102a4576102358160400182608001610e73565b60036102b36020830183612ebf565b60068111156102c4576102c46131a8565b14156102d65761023581604001611586565b60046102e56020830183612ebf565b60068111156102f6576102f66131a8565b14156103185761023561030f6040830160208401612fd9565b8260800161199f565b60056103276020830183612ebf565b6006811115610338576103386131a8565b141561034e576102358160400182608001611f08565b600661035d6020830183612ebf565b600681111561036e5761036e6131a8565b1415610235576102356103876040830160208401612fd9565b826080016124a1565b600880547f000000000000000000000000000000000000000000000000000000000000000091906001906103cd908490610100900460ff16613069565b92506101000a81548160ff021916908360ff160217905550600060018111156103f8576103f86131a8565b60005460ff16600181111561040f5761040f6131a8565b1461041b57600061041e565b60015b6000805460ff191660018381811115610439576104396131a8565b021790555060008054610100900461ffff1690600161045783613155565b91906101000a81548161ffff021916908361ffff160217905550507fb2a5f112f4ef2b6d1ab7a886557835d90f7826318e7a0a40a34673a7248ba8de60008054906101000a900460ff1660018111156104b2576104b26131a8565b60405160ff909116815260200160405180910390a1565b6008546201000090046001600160a01b03166000908152600a6020908152604080832060ff8616845290915281205490546002916105149161ffff91821691610100909104166130f8565b61ffff1610156105665760405162461bcd60e51b815260206004820152601a60248201527f43616e27742070757420706c617965722074686973207475726e0000000000006044820152606401610194565b7f000000000000000000000000000000000000000000000000000000000000000060ff168160ff16106105cc5760405162461bcd60e51b815260206004820152600e60248201526d24b73b30b634b21031b7b63ab6b760911b6044820152606401610194565b600c6000815481106105e0576105e06131be565b906000526020600020018160ff16815481106105fe576105fe6131be565b60009182526020909120015460ff161561064d5760405162461bcd60e51b815260206004820152601060248201526f10d95b1b081a5cc81bd8d8dd5c1a595960821b6044820152606401610194565b600060086001018360ff1681548110610668576106686131be565b6000918252602080832090820401546003546040516348c4698960e11b8152601f9093166101000a90910460ff166004830181905293506001600160a01b031690639188d3129060240160e06040518083038186803b1580156106ca57600080fd5b505afa1580156106de573d6000803e3d6000fd5b505050506040513d601f19601f820116820180604052508101906107029190612ee0565b608081015160085491925060ff908116610100909204161161075d5760405162461bcd60e51b8152602060048201526014602482015273115b995c99de481b9bdd081cdd59999a58d95b9d60621b6044820152606401610194565b60808101516008805460019061077c908490610100900460ff16613132565b92506101000a81548160ff021916908360ff1602179055506040518060a001604052806001151581526020018560ff1681526020018260a0015160ff1681526020018360ff168152602001600860000160029054906101000a90046001600160a01b03166001600160a01b0316815250600c600081548110610800576108006131be565b906000526020600020018460ff168154811061081e5761081e6131be565b600091825260209182902083519101805484840151604080870151606088015160809098015161ffff1990941695151561ff0019169590951761010060ff938416021763ffff00001916620100009583169590950263ff00000019169490941763010000009682169690960295909517640100000000600160c01b031916600160201b6001600160a01b039092169190910217905580518684168152928516918301919091527f2a102de3851f9d59b8d145c1ce90b60cb023d819273a14fd3b25e7f0cec7ed4e910160405180910390a150505050565b6000600c6109066020850185612fd9565b60ff1681548110610919576109196131be565b906000526020600020018360200160208101906109369190612fd9565b60ff1681548110610949576109496131be565b60009182526020918290206040805160a081018252929091015460ff8082161515845261010082048116848601526201000080830482169385019390935263010000008204811660608501526001600160a01b03600160201b90920482166080850152600454600854949650938390048216929093041614917f0000000000000000000000000000000000000000000000000000000000000000909116906109f390850185612fd9565b60ff16108015610a37575060ff7f000000000000000000000000000000000000000000000000000000000000000016610a326040850160208601612fd9565b60ff16105b610a775760405162461bcd60e51b8152602060048201526011602482015270546172676574206f66662d626f756e647360781b6044820152606401610194565b60808201516001600160a01b03163314610acb5760405162461bcd60e51b81526020600482015260156024820152742737ba1037bbb734b733903a34329037b934b3b4b760591b6044820152606401610194565b600854600161010090910460ff1611610b1c5760405162461bcd60e51b8152602060048201526013602482015272115b995c99de481a5b9cdd59999a58da595b9d606a1b6044820152606401610194565b600081610b4c57610b306020850185612fd9565b610b3d6020870187612fd9565b610b479190613132565b610b70565b610b596020860186612fd9565b610b666020860186612fd9565b610b709190613132565b90506000610b846040870160208801612fd9565b60ff16610b976040870160208801612fd9565b60ff161015610bcf57610bb06040860160208701612fd9565b610bc06040880160208901612fd9565b610bca9190613132565b610bf9565b610bdf6040870160208801612fd9565b610bef6040870160208801612fd9565b610bf99190613132565b90508160ff1660011480610c1057508060ff166001145b610c4f5760405162461bcd60e51b815260206004820152601060248201526f125b1b1959d85b081b5bdd995b595b9d60821b6044820152606401610194565b60088054600191908290610c6c908290610100900460ff16613132565b92506101000a81548160ff021916908360ff16021790555083600c866000016020810190610c9a9190612fd9565b60ff1681548110610cad57610cad6131be565b90600052602060002001866020016020810190610cca9190612fd9565b60ff1681548110610cdd57610cdd6131be565b6000918252602091829020835191018054848401516040860151606087015160809097015161ffff1990931694151561ff0019169490941761010060ff928316021763ffff00001916620100009482169490940263ff0000001916939093176301000000939095169290920293909317640100000000600160c01b031916600160201b6001600160a01b039092169190910217909155600c90610d8290880188612fd9565b60ff1681548110610d9557610d956131be565b90600052602060002001866020016020810190610db29190612fd9565b60ff1681548110610dc557610dc56131be565b60009182526020918290200180546001600160c01b03191690557fd46e1b079f3442f942e1744a9c599b87a4a96c160cda79caa418bd5e4632a1c290610e0d90880188612fd9565b610e1d6040890160208a01612fd9565b610e2a6020890189612fd9565b610e3a60408a0160208b01612fd9565b6040805160ff958616815293851660208501529184169183019190915290911660608201526080015b60405180910390a1505050505050565b6000600c610e846020850185612fd9565b60ff1681548110610e9757610e976131be565b90600052602060002001836020016020810190610eb49190612fd9565b60ff1681548110610ec757610ec76131be565b600091825260208083206040805160a081018252939091015460ff808216151585526101008204811685850152620100008204811692850192909252630100000081049091166060840152600160201b90046001600160a01b03166080830152909250600c90610f3990850185612fd9565b60ff1681548110610f4c57610f4c6131be565b90600052602060002001836020016020810190610f699190612fd9565b60ff1681548110610f7c57610f7c6131be565b60009182526020918290206040805160a081018252919092015460ff8082161515835261010082048116948301949094526201000081048416928201929092526301000000820490921660608301526001600160a01b03600160201b909104811660808084019190915284015191925016331461100b5760405162461bcd60e51b815260040161019490612ff6565b80516110595760405162461bcd60e51b815260206004820152601a60248201527f41747461636b696e67206f6e20616e20656d7074792063656c6c0000000000006044820152606401610194565b60808101516001600160a01b03163314156110af5760405162461bcd60e51b815260206004820152601660248201527541747461636b696e67206f6e206f776e2063656c6c7360501b6044820152606401610194565b60035460608301516040516348c4698960e11b815260ff90911660048201526000916001600160a01b031690639188d3129060240160e06040518083038186803b1580156110fc57600080fd5b505afa158015611110573d6000803e3d6000fd5b505050506040513d601f19601f820116820180604052508101906111349190612ee0565b905060008160200151600181111561114e5761114e6131a8565b1461118f5760405162461bcd60e51b81526020600482015260116024820152704e6f74206120636172642061747461636b60781b6044820152606401610194565b60045460085462010000918290046001600160a01b039081169290910416146000816111de576111c26020870187612fd9565b6111cf6020890189612fd9565b6111d99190613132565b611202565b6111eb6020880188612fd9565b6111f86020880188612fd9565b6112029190613132565b905060006112166040890160208a01612fd9565b60ff166112296040890160208a01612fd9565b60ff161015611261576112426040880160208901612fd9565b61125260408a0160208b01612fd9565b61125c9190613132565b61128b565b6112716040890160208a01612fd9565b6112816040890160208a01612fd9565b61128b9190613132565b9050836060015160ff168260ff16111580156112b15750836040015160ff168160ff1611155b6112f65760405162461bcd60e51b8152602060048201526016602482015275546172676574206973206f7574206f662072616e676560501b6044820152606401610194565b600854600161010090910460ff16116113515760405162461bcd60e51b815260206004820152601c60248201527f4e6f7420656e6f75676820656e6572677920666f722061747461636b000000006044820152606401610194565b6008805460019190829061136e908290610100900460ff16613132565b92506101000a81548160ff021916908360ff1602179055508360c0015160ff16856040015160ff1611611452576000805460808701516001600160a01b03168252600a60209081526040808420828a015160ff1685528252909220805461010090920461ffff1661ffff19909216919091179055600c906113f190890189612fd9565b60ff1681548110611404576114046131be565b906000526020600020018760200160208101906114219190612fd9565b60ff1681548110611434576114346131be565b600091825260209091200180546001600160c01b03191690556114e6565b60c0840151600c61146660208a018a612fd9565b60ff1681548110611479576114796131be565b906000526020600020018860200160208101906114969190612fd9565b60ff16815481106114a9576114a96131be565b600091825260209091200180546002906114cd90849062010000900460ff16613132565b92506101000a81548160ff021916908360ff1602179055505b7f821fa0d3357caf1ed6e818f6af88d667dbb5e5afc86fd1dd63c43c5d9cb668de61151460208a018a612fd9565b61152460408b0160208c01612fd9565b61153160208b018b612fd9565b61154160408c0160208d01612fd9565b60c08901516040805160ff9687168152948616602086015292851684840152908416606084015292909216608082015290519081900360a00190a15050505050505050565b60008060005460ff1660018111156115a0576115a06131a8565b146115ac5760046115af565b60065b90506000600c6115c26020850185612fd9565b60ff16815481106115d5576115d56131be565b906000526020600020018360200160208101906115f29190612fd9565b60ff1681548110611605576116056131be565b600091825260208083206040805160a081018252939091015460ff80821615158552610100820481169385019390935262010000810483168483015263010000008104909216606084018190526001600160a01b03600160201b9093048316608085015260035491516348c4698960e11b815260048101919091529294501690639188d3129060240160e06040518083038186803b1580156116a657600080fd5b505afa1580156116ba573d6000803e3d6000fd5b505050506040513d601f19601f820116820180604052508101906116de9190612ee0565b60808301519091506001600160a01b0316331461170d5760405162461bcd60e51b815260040161019490612ff6565b600081602001516001811115611725576117256131a8565b146117695760405162461bcd60e51b81526020600482015260146024820152732737ba1030b71030ba3a30b1b590383630bcb2b960611b6044820152606401610194565b600854600161010090910460ff16116117b85760405162461bcd60e51b81526020600482015260116024820152704e6f7420656e6f75676820656e6572677960781b6044820152606401610194565b60045460085462010000918290046001600160a01b03908116929091041614806117fa57606082015160ff166117f16020870187612fd9565b60ff1610611841565b606082015160ff7f000000000000000000000000000000000000000000000000000000000000000016906118316020880188612fd9565b61183b9190613069565b60ff1610155b6118845760405162461bcd60e51b815260206004820152601460248201527342617365206973206f7574206f662072616e676560601b6044820152606401610194565b600880546001919082906118a1908290610100900460ff16613132565b82546101009290920a60ff818102199093169183160217909155855460c08501519082169116111590506118fa5760085484546118f5916001600160a01b0362010000918290048116929190910416612961565b61192d565b60c08201518454859060009061191490849060ff16613132565b92506101000a81548160ff021916908360ff1602179055505b7f9514b0a645ab311710078885b3d1aa7b7c941ade5dba24715646519e625ec85861195b6020870187612fd9565b61196b6040880160208901612fd9565b60c08501516040805160ff948516815292841660208401529216918101919091526060015b60405180910390a15050505050565b60008060005460ff1660018111156119b9576119b96131a8565b146119c55760046119c8565b60065b90506000600c6119db6020850185612fd9565b60ff16815481106119ee576119ee6131be565b90600052602060002001836020016020810190611a0b9190612fd9565b60ff1681548110611a1e57611a1e6131be565b600091825260208083206040805160a081018252939091015460ff8082161515855261010082048116938501939093526201000081048316918401919091526301000000810482166060840152600160201b90046001600160a01b03908116608084015260035460098054949650911692639188d312928916908110611aa657611aa66131be565b60009182526020918290209181049091015460405160e084901b6001600160e01b0319168152601f9092166101000a900460ff16600482015260240160e06040518083038186803b158015611afa57600080fd5b505afa158015611b0e573d6000803e3d6000fd5b505050506040513d601f19601f82011682018060405250810190611b329190612ee0565b600254604051636eb1769f60e11b81526001600160a01b037f0000000000000000000000000000000000000000000000000000000000000000811660048301523060248301529293506000926103e89261ffff7f0000000000000000000000000000000000000000000000000000000000000000169291169063dd62ed3e9060440160206040518083038186803b158015611bcc57600080fd5b505afa158015611be0573d6000803e3d6000fd5b505050506040513d601f19601f82011682018060405250810190611c049190612f9e565b611c0e91906130b0565b611c18919061308e565b8351909150611c395760405162461bcd60e51b815260040161019490613023565b835460808401516001600160a01b03908116620100009092041614611c965760405162461bcd60e51b81526020600482015260136024820152722bb937b733903a30b933b2ba10383630bcb2b960691b6044820152606401610194565b336000908152600b6020526040902054811015611cf55760405162461bcd60e51b815260206004820181905260248201527f4e6f2062616c616e6365206c65667420746f2075736520676f6420706f7765726044820152606401610194565b611d0060058261308e565b336000908152600b602052604081208054909190611d1f908490613051565b925050819055508160c0015160ff16836040015160ff1611611df5576000805485546201000090046001600160a01b03168252600a602090815260408084208783015160ff1685528252909220805461010090920461ffff1661ffff19909216919091179055600c90611d9490870187612fd9565b60ff1681548110611da757611da76131be565b90600052602060002001856020016020810190611dc49190612fd9565b60ff1681548110611dd757611dd76131be565b600091825260209091200180546001600160c01b0319169055611e95565b60038260c00151611e0691906130cf565b600c611e156020880188612fd9565b60ff1681548110611e2857611e286131be565b90600052602060002001866020016020810190611e459190612fd9565b60ff1681548110611e5857611e586131be565b60009182526020909120018054600290611e7c90849062010000900460ff16613132565b92506101000a81548160ff021916908360ff1602179055505b7fad81c2d8ff449019cfaf2eda745547aae68efd585520cf7bbad02ca0ff57aaf1611ec36020870187612fd9565b611ed36040880160208901612fd9565b60038560c00151611ee491906130cf565b6040805160ff94851681529284166020840152921691810191909152606001610e63565b6000600c611f196020850185612fd9565b60ff1681548110611f2c57611f2c6131be565b90600052602060002001836020016020810190611f499190612fd9565b60ff1681548110611f5c57611f5c6131be565b600091825260208083206040805160a081018252939091015460ff808216151585526101008204811685850152620100008204811692850192909252630100000081049091166060840152600160201b90046001600160a01b03166080830152909250600c90611fce90850185612fd9565b60ff1681548110611fe157611fe16131be565b90600052602060002001836020016020810190611ffe9190612fd9565b60ff1681548110612011576120116131be565b600091825260208083206040805160a081018252939091015460ff8082161515855261010082048116938501939093526201000081048316848301526301000000810483166060808601919091526001600160a01b03600160201b909204821660808601526003549088015192516348c4698960e11b8152929093166004830152929450911690639188d3129060240160e06040518083038186803b1580156120b957600080fd5b505afa1580156120cd573d6000803e3d6000fd5b505050506040513d601f19601f820116820180604052508101906120f19190612ee0565b60808401519091506001600160a01b031633146121205760405162461bcd60e51b815260040161019490612ff6565b815161213e5760405162461bcd60e51b815260040161019490613023565b60808201516001600160a01b031633146121925760405162461bcd60e51b8152602060048201526015602482015274139bdd081bdddb9a5b99c81d1a19481d185c99d95d605a1b6044820152606401610194565b6001816020015160018111156121aa576121aa6131a8565b146121e95760405162461bcd60e51b815260206004820152600f60248201526e139bdd0818481a19585b0818d85c99608a1b6044820152606401610194565b60045460085462010000918290046001600160a01b039081169290910416146000816122385761221c6020870187612fd9565b6122296020890189612fd9565b6122339190613132565b61225c565b6122456020880188612fd9565b6122526020880188612fd9565b61225c9190613132565b905060006122706040890160208a01612fd9565b60ff166122836040890160208a01612fd9565b60ff1610156122bb5761229c6040880160208901612fd9565b6122ac60408a0160208b01612fd9565b6122b69190613132565b6122e5565b6122cb6040890160208a01612fd9565b6122db6040890160208a01612fd9565b6122e59190613132565b9050836060015160ff168260ff161115801561230b5750836040015160ff168160ff1611155b6123505760405162461bcd60e51b8152602060048201526016602482015275546172676574206973206f7574206f662072616e676560501b6044820152606401610194565b600854600161010090910460ff161161239f5760405162461bcd60e51b81526020600482015260116024820152704e6f7420656e6f75676820656e6572677960781b6044820152606401610194565b600880546001919082906123bc908290610100900460ff16613132565b92506101000a81548160ff021916908360ff1602179055508360c00151600c8860000160208101906123ee9190612fd9565b60ff1681548110612401576124016131be565b9060005260206000200188602001602081019061241e9190612fd9565b60ff1681548110612431576124316131be565b6000918252602090912001805460029061245590849062010000900460ff16613069565b92506101000a81548160ff021916908360ff1602179055507f8755e3de7285d4f55c28476287892f02fa00fe2a9476fd9f76aa96ddce5a12378860000160208101906115149190612fd9565b6000600c6124b26020840184612fd9565b60ff16815481106124c5576124c56131be565b906000526020600020018260200160208101906124e29190612fd9565b60ff16815481106124f5576124f56131be565b600091825260208083206040805160a081018252939091015460ff8082161515855261010082048116938501939093526201000081048316918401919091526301000000810482166060840152600160201b90046001600160a01b03908116608084015260035460098054949650911692639188d31292881690811061257d5761257d6131be565b60009182526020918290209181049091015460405160e084901b6001600160e01b0319168152601f9092166101000a900460ff16600482015260240160e06040518083038186803b1580156125d157600080fd5b505afa1580156125e5573d6000803e3d6000fd5b505050506040513d601f19601f820116820180604052508101906126099190612ee0565b600254604051636eb1769f60e11b81526001600160a01b037f0000000000000000000000000000000000000000000000000000000000000000811660048301523060248301529293506000926103e89261ffff7f0000000000000000000000000000000000000000000000000000000000000000169291169063dd62ed3e9060440160206040518083038186803b1580156126a357600080fd5b505afa1580156126b7573d6000803e3d6000fd5b505050506040513d601f19601f820116820180604052508101906126db9190612f9e565b6126e591906130b0565b6126ef919061308e565b336000908152600b60205260409020549091508110156127515760405162461bcd60e51b815260206004820181905260248201527f4e6f2062616c616e6365206c65667420746f2075736520676f6420706f7765726044820152606401610194565b600182602001516001811115612769576127696131a8565b146127a85760405162461bcd60e51b815260206004820152600f60248201526e139bdd0818481a19585b0818d85c99608a1b6044820152606401610194565b82516127c65760405162461bcd60e51b815260040161019490613023565b60808301516001600160a01b0316331461281a5760405162461bcd60e51b8152602060048201526015602482015274139bdd081bdddb9a5b99c81d1a19481d185c99d95d605a1b6044820152606401610194565b61282560058261308e565b336000908152600b602052604081208054909190612844908490613051565b909155505060c082015161285a906003906130cf565b600c6128696020870187612fd9565b60ff168154811061287c5761287c6131be565b906000526020600020018560200160208101906128999190612fd9565b60ff16815481106128ac576128ac6131be565b600091825260209091200180546002906128d090849062010000900460ff16613069565b92506101000a81548160ff021916908360ff1602179055507fb66f84be78126463140b4fcd1f22ebe400bb165705bbfdd215781a0a0678660e84600001602081019061291c9190612fd9565b61292c6040870160208801612fd9565b60038560c0015161293d91906130cf565b6040805160ff94851681529284166020840152921691810191909152606001611990565b600254604051636eb1769f60e11b81526001600160a01b037f000000000000000000000000000000000000000000000000000000000000000081166004830152306024830152600092169063dd62ed3e9060440160206040518083038186803b1580156129cd57600080fd5b505afa1580156129e1573d6000803e3d6000fd5b505050506040513d601f19601f82011682018060405250810190612a059190612f9e565b6002546001600160a01b038581166000908152600b602052604090205492935016906323b872dd907f00000000000000000000000000000000000000000000000000000000000000009086906103e8612a8261ffff7f000000000000000000000000000000000000000000000000000000000000000016886130b0565b612a8c919061308e565b612a96919061311b565b6040516001600160e01b031960e086901b1681526001600160a01b0393841660048201529290911660248301526044820152606401602060405180830381600087803b158015612ae557600080fd5b505af1158015612af9573d6000803e3d6000fd5b505050506040513d601f19601f82011682018060405250810190612b1d9190612ea4565b612b615760405162461bcd60e51b815260206004820152601560248201527415da5b9b995c881c185e5b595b9d0819985a5b1959605a1b6044820152606401610194565b6002546001600160a01b03166323b872dd7f00000000000000000000000000000000000000000000000000000000000000007f00000000000000000000000000000000000000000000000000000000000000006103e8612be561ffff7f000000000000000000000000000000000000000000000000000000000000000016876130b0565b612bef919061308e565b6040516001600160e01b031960e086901b1681526001600160a01b0393841660048201529290911660248301526044820152606401602060405180830381600087803b158015612c3e57600080fd5b505af1158015612c52573d6000803e3d6000fd5b505050506040513d601f19601f82011682018060405250810190612c769190612ea4565b612cc25760405162461bcd60e51b815260206004820152601a60248201527f4172656e61206f776e6572207061796d656e74206661696c65640000000000006044820152606401610194565b6001546040516340c10f1960e01b81526001600160a01b038581166004830152600a6024830152909116906340c10f1990604401600060405180830381600087803b158015612d1057600080fd5b505af1158015612d24573d6000803e3d6000fd5b50506001546040516340c10f1960e01b81526001600160a01b0386811660048301526002602483015290911692506340c10f199150604401600060405180830381600087803b158015612d7657600080fd5b505af1158015612d8a573d6000803e3d6000fd5b50506040516001600160a01b03861681527f1728dd43546edd06fabfe796e5b641a151aa90998bfd1b1ec0ae98c6e77084599250602001905060405180910390a1505050565b80518015158114612de057600080fd5b919050565b805160028110612de057600080fd5b8051612de0816131d4565b600060208284031215612e1157600080fd5b81356001600160a01b0381168114612e2857600080fd5b9392505050565b60008060208385031215612e4257600080fd5b823567ffffffffffffffff80821115612e5a57600080fd5b818501915085601f830112612e6e57600080fd5b813581811115612e7d57600080fd5b86602060c083028501011115612e9257600080fd5b60209290920196919550909350505050565b600060208284031215612eb657600080fd5b612e2882612dd0565b600060208284031215612ed157600080fd5b813560078110612e2857600080fd5b600060e08284031215612ef257600080fd5b60405160e0810181811067ffffffffffffffff82111715612f2357634e487b7160e01b600052604160045260246000fd5b604052612f2f83612dd0565b8152612f3d60208401612de5565b6020820152612f4e60408401612df4565b6040820152612f5f60608401612df4565b6060820152612f7060808401612df4565b6080820152612f8160a08401612df4565b60a0820152612f9260c08401612df4565b60c08201529392505050565b600060208284031215612fb057600080fd5b5051919050565b60008060408385031215612fca57600080fd5b50508035926020909101359150565b600060208284031215612feb57600080fd5b8135612e28816131d4565b6020808252601390820152722737ba1037bbb734b733903a3432903830bbb760691b604082015260600190565b6020808252601490820152735461726765742063656c6c20697320656d70747960601b604082015260600190565b6000821982111561306457613064613192565b500190565b600060ff821660ff84168060ff0382111561308657613086613192565b019392505050565b6000826130ab57634e487b7160e01b600052601260045260246000fd5b500490565b60008160001904831182151516156130ca576130ca613192565b500290565b600060ff821660ff84168160ff04811182151516156130f0576130f0613192565b029392505050565b600061ffff8381169083168181101561311357613113613192565b039392505050565b60008282101561312d5761312d613192565b500390565b600060ff821660ff84168082101561314c5761314c613192565b90039392505050565b600061ffff8083168181141561316d5761316d613192565b6001019392505050565b600060001982141561318b5761318b613192565b5060010190565b634e487b7160e01b600052601160045260246000fd5b634e487b7160e01b600052602160045260246000fd5b634e487b7160e01b600052603260045260246000fd5b60ff8116811461023557600080fdfea2646970667358221220285e43c98af15c761c4228574c36d89d789c81d3c328998461751ad4d99e930d64736f6c63430008070033",
  "linkReferences": {},
  "deployedLinkReferences": {}
}