{
  "_format": "hh-sol-artifact-1",
  "contractName": "MatchMaker",
  "sourceName": "contracts/MatchMaker.sol",
  "abi": [
    {
      "inputs": [
        {
          "internalType": "contract XP",
          "name": "xpAddress",
          "type": "address"
        },
        {
          "internalType": "contract ARENA",
          "name": "arenaAddress",
          "type": "address"
        },
        {
          "internalType": "contract SONS",
          "name": "sonsAddress",
          "type": "address"
        },
        {
          "internalType": "contract BILIRA",
          "name": "biliraAddress",
          "type": "address"
        },
        {
          "internalType": "contract GOD",
          "name": "playerAddress",
          "type": "address"
        }
      ],
      "stateMutability": "nonpayable",
      "type": "constructor"
    },
    {
      "anonymous": false,
      "inputs": [
        {
          "indexed": false,
          "internalType": "uint256",
          "name": "gameId",
          "type": "uint256"
        }
      ],
      "name": "GameRegistered",
      "type": "event"
    },
    {
      "anonymous": false,
      "inputs": [
        {
          "indexed": false,
          "internalType": "uint256",
          "name": "gameId",
          "type": "uint256"
        },
        {
          "indexed": false,
          "internalType": "address",
          "name": "instance",
          "type": "address"
        }
      ],
      "name": "GameStarted",
      "type": "event"
    },
    {
      "anonymous": false,
      "inputs": [
        {
          "indexed": true,
          "internalType": "address",
          "name": "previousOwner",
          "type": "address"
        },
        {
          "indexed": true,
          "internalType": "address",
          "name": "newOwner",
          "type": "address"
        }
      ],
      "name": "OwnershipTransferred",
      "type": "event"
    },
    {
      "anonymous": false,
      "inputs": [
        {
          "indexed": false,
          "internalType": "uint256",
          "name": "gameId",
          "type": "uint256"
        },
        {
          "indexed": false,
          "internalType": "address",
          "name": "leavingPlayer",
          "type": "address"
        }
      ],
      "name": "WaitingLeave",
      "type": "event"
    },
    {
      "inputs": [
        {
          "internalType": "uint256",
          "name": "",
          "type": "uint256"
        }
      ],
      "name": "arenaToPlayer",
      "outputs": [
        {
          "internalType": "bool",
          "name": "exists",
          "type": "bool"
        },
        {
          "internalType": "address",
          "name": "addr",
          "type": "address"
        },
        {
          "internalType": "uint256",
          "name": "gameId",
          "type": "uint256"
        }
      ],
      "stateMutability": "view",
      "type": "function"
    },
    {
      "inputs": [
        {
          "internalType": "address",
          "name": "",
          "type": "address"
        }
      ],
      "name": "inGame",
      "outputs": [
        {
          "internalType": "bool",
          "name": "",
          "type": "bool"
        }
      ],
      "stateMutability": "view",
      "type": "function"
    },
    {
      "inputs": [
        {
          "internalType": "uint256",
          "name": "arenaId",
          "type": "uint256"
        }
      ],
      "name": "leaveGame",
      "outputs": [],
      "stateMutability": "nonpayable",
      "type": "function"
    },
    {
      "inputs": [],
      "name": "owner",
      "outputs": [
        {
          "internalType": "address",
          "name": "",
          "type": "address"
        }
      ],
      "stateMutability": "view",
      "type": "function"
    },
    {
      "inputs": [
        {
          "internalType": "uint256",
          "name": "arenaId",
          "type": "uint256"
        },
        {
          "internalType": "uint8[]",
          "name": "deck",
          "type": "uint8[]"
        }
      ],
      "name": "registerToMatch",
      "outputs": [],
      "stateMutability": "nonpayable",
      "type": "function"
    },
    {
      "inputs": [],
      "name": "renounceOwnership",
      "outputs": [],
      "stateMutability": "nonpayable",
      "type": "function"
    },
    {
      "inputs": [
        {
          "internalType": "address",
          "name": "newOwner",
          "type": "address"
        }
      ],
      "name": "transferOwnership",
      "outputs": [],
      "stateMutability": "nonpayable",
      "type": "function"
    }
  ],
  "bytecode": "0x608060405260006006553480156200001657600080fd5b50604051620048d8380380620048d88339810160408190526200003991620000f8565b6200004433620000a8565b600180546001600160a01b03199081166001600160a01b039788161790915560028054821695871695909517909455600380548516938616939093179092556004805484169285169290921790915560058054909216921691909117905562000191565b600080546001600160a01b038381166001600160a01b0319831681178455604051919092169283917f8be0079c531659141344cd1fd0a4f28419497f9722a3daafe3b4186f6b6457e09190a35050565b600080600080600060a086880312156200011157600080fd5b85516200011e8162000178565b6020870151909550620001318162000178565b6040870151909450620001448162000178565b6060870151909350620001578162000178565b60808701519092506200016a8162000178565b809150509295509295909350565b6001600160a01b03811681146200018e57600080fd5b50565b61473780620001a16000396000f3fe60806040523480156200001157600080fd5b5060043610620000875760003560e01c8063715018a61162000062578063715018a614620000f75780637962bf0c14620001015780638da5cb5b1462000165578063f2fde38b146200018157600080fd5b80630721cbb9146200008c57806325bc6be114620000a55780633feef58a14620000e0575b600080fd5b620000a36200009d36600462000db6565b62000198565b005b620000cb620000b636600462000d31565b60086020526000908152604090205460ff1681565b60405190151581526020015b60405180910390f35b620000a3620000f136600462000d9c565b620008b2565b620000a362000a95565b6200013f6200011236600462000d9c565b6007602052600090815260409020805460019091015460ff82169161010090046001600160a01b03169083565b6040805193151584526001600160a01b03909216602084015290820152606001620000d7565b6000546040516001600160a01b039091168152602001620000d7565b620000a36200019236600462000d31565b62000aff565b6002546040516331a9108f60e11b8152600481018590526000916001600160a01b031690636352211e9060240160206040518083038186803b158015620001de57600080fd5b505afa158015620001f3573d6000803e3d6000fd5b505050506040513d601f19601f8201168201806040525081019062000219919062000d58565b90506001600160a01b038116620002775760405162461bcd60e51b815260206004820152601b60248201527f426f6172642069736e2774206f776e656420627920616e796f6e65000000000060448201526064015b60405180910390fd5b60008481526007602090815260408083208151608081018352815460ff81161515825261010090046001600160a01b0316818501526001820154818401526002820180548451818702810187019095528085529194929360608601939092908301828280156200032557602002820191906000526020600020906000905b825461010083900a900460ff16815260206001928301818104948501949093039092029101808411620002f55790505b50505091909252505060025460405163586a7b7160e01b815260048101899052929350600092839250829182916001600160a01b039091169063586a7b719060240160806040518083038186803b1580156200038057600080fd5b505afa15801562000395573d6000803e3d6000fd5b505050506040513d601f19601f82011682018060405250810190620003bb919062000e3a565b93509350935093506001846002620003d4919062000ff4565b620003e0919062001020565b60ff168714620004335760405162461bcd60e51b815260206004820152601a60248201527f4465636b206973206e6f74207468652072696768742073697a6500000000000060448201526064016200026e565b6003546040516323b872dd60e01b8152336004820152306024820152604481018390526001600160a01b03909116906323b872dd90606401602060405180830381600087803b1580156200048657600080fd5b505af11580156200049b573d6000803e3d6000fd5b505050506040513d601f19601f82011682018060405250810190620004c1919062000d78565b620005045760405162461bcd60e51b8152602060048201526012602482015271119959481c185e5b595b9d0819985a5b195960721b60448201526064016200026e565b84511562000775576000600160009054906101000a90046001600160a01b0316600360009054906101000a90046001600160a01b0316600460009054906101000a90046001600160a01b031660405180608001604052808960ff1681526020018861ffff1681526020018761ffff168152602001868152508a338b602001518f8f8e60600151604051620005989062000c20565b620005ad9a9998979695949392919062000f0a565b604051809103906000f080158015620005ca573d6000803e3d6000fd5b506003549091506001600160a01b031663095ea7b382620005ed85600262000fd2565b6040516001600160e01b031960e085901b1681526001600160a01b0390921660048301526024820152604401602060405180830381600087803b1580156200063457600080fd5b505af115801562000649573d6000803e3d6000fd5b505050506040513d601f19601f820116820180604052508101906200066f919062000d78565b620006bd5760405162461bcd60e51b815260206004820152601960248201527f47616d6520746f6b656e20617070726f7665206661696c65640000000000000060448201526064016200026e565b60408087015181519081526001600160a01b03831660208201527ffadb9547847a0c2c31f4c02590545e318d33d7aae99071caecf3fa4ce3cd7dca910160405180910390a1336000908152600860209081526040808320805460ff19908116909155898301516001600160a01b03168452818420805490911690558c83526007909152812080546001600160a81b0319168155600181018290559062000767600283018262000c2e565b505050505050505050505050565b6040805160808101825260018152336020820152600680549192830191906000620007a08362001046565b91905055815260200189898080602002602001604051908101604052809392919081815260200183836020028082843760009201829052509390945250508b81526007602090815260409182902084518154868401516001600160a01b031661010002610100600160a81b0319921515929092166001600160a81b031990911617178155918401516001830155606084015180519293506200084c926002850192919091019062000c55565b50503360009081526008602052604090819020805460ff1916600117905560065490517f6ba49772de98d7caa0bbc51b24dfec5673a2f67fc9932e20e1295eca2947d43b92506200089f91815260200190565b60405180910390a1505050505050505050565b60025460405163586a7b7160e01b8152600481018390526000916001600160a01b03169063586a7b719060240160806040518083038186803b158015620008f857600080fd5b505afa1580156200090d573d6000803e3d6000fd5b505050506040513d601f19601f8201168201806040525081019062000933919062000e3a565b60035460405163095ea7b360e01b8152336004820152602481018390529195506001600160a01b0316935063095ea7b392506044019050602060405180830381600087803b1580156200098557600080fd5b505af11580156200099a573d6000803e3d6000fd5b505050506040513d601f19601f82011682018060405250810190620009c0919062000d78565b62000a0e5760405162461bcd60e51b815260206004820152601b60248201527f456e7472616e63652066656520617070726f7665206661696c6564000000000060448201526064016200026e565b336000908152600860209081526040808320805460ff191690558483526007909152812080546001600160a81b0319168155600181018290559062000a57600283018262000c2e565b5050604080518381523360208201527f376488118f6c5ddef80f45989b43f1e286861b6b2187e9db3965731e4d69a43d910160405180910390a15050565b6000546001600160a01b0316331462000af15760405162461bcd60e51b815260206004820181905260248201527f4f776e61626c653a2063616c6c6572206973206e6f7420746865206f776e657260448201526064016200026e565b62000afd600062000bd0565b565b6000546001600160a01b0316331462000b5b5760405162461bcd60e51b815260206004820181905260248201527f4f776e61626c653a2063616c6c6572206973206e6f7420746865206f776e657260448201526064016200026e565b6001600160a01b03811662000bc25760405162461bcd60e51b815260206004820152602660248201527f4f776e61626c653a206e6577206f776e657220697320746865207a65726f206160448201526564647265737360d01b60648201526084016200026e565b62000bcd8162000bd0565b50565b600080546001600160a01b038381166001600160a01b0319831681178455604051919092169283917f8be0079c531659141344cd1fd0a4f28419497f9722a3daafe3b4186f6b6457e09190a35050565b61366180620010a183390190565b50805460008255601f01602090049060005260206000209081019062000bcd919062000d02565b82805482825590600052602060002090601f0160209004810192821562000cf05791602002820160005b8382111562000cbf57835183826101000a81548160ff021916908360ff160217905550926020019260010160208160000104928301926001030262000c7f565b801562000cee5782816101000a81549060ff021916905560010160208160000104928301926001030262000cbf565b505b5062000cfe92915062000d02565b5090565b5b8082111562000cfe576000815560010162000d03565b805161ffff8116811462000d2c57600080fd5b919050565b60006020828403121562000d4457600080fd5b813562000d51816200107a565b9392505050565b60006020828403121562000d6b57600080fd5b815162000d51816200107a565b60006020828403121562000d8b57600080fd5b8151801515811462000d5157600080fd5b60006020828403121562000daf57600080fd5b5035919050565b60008060006040848603121562000dcc57600080fd5b83359250602084013567ffffffffffffffff8082111562000dec57600080fd5b818601915086601f83011262000e0157600080fd5b81358181111562000e1157600080fd5b8760208260051b850101111562000e2757600080fd5b6020830194508093505050509250925092565b6000806000806080858703121562000e5157600080fd5b845162000e5e8162001090565b935062000e6e6020860162000d19565b925062000e7e6040860162000d19565b6060959095015193969295505050565b8183526000602080850194508260005b8581101562000eca57813562000eb48162001090565b60ff168752958201959082019060010162000e9e565b509495945050505050565b600081518084526020808501945080840160005b8381101562000eca57815160ff168752958201959082019060010162000ee9565b600061018060018060a01b03808e168452808d166020850152808c1660408501525060ff8a5116606084015260208a015161ffff80821660808601528060408d01511660a0860152505060608a015160c084015262000f7460e084018a6001600160a01b03169052565b6001600160a01b0388166101008401526001600160a01b0387166101208401528061014084015262000faa818401868862000e8e565b905082810361016084015262000fc1818562000ed5565b9d9c50505050505050505050505050565b600081600019048311821515161562000fef5762000fef62001064565b500290565b600060ff821660ff84168160ff048111821515161562001018576200101862001064565b029392505050565b600060ff821660ff8416808210156200103d576200103d62001064565b90039392505050565b60006000198214156200105d576200105d62001064565b5060010190565b634e487b7160e01b600052601160045260246000fd5b6001600160a01b038116811462000bcd57600080fd5b60ff8116811462000bcd57600080fdfe6101406040526000805462ffffff191690553480156200001e57600080fd5b506040516200366138038062003661833981016040819052620000419162000630565b85516001906200005390600262000741565b6200005f91906200076d565b60ff16825114801562000092575085516001906200007f90600262000741565b6200008b91906200076d565b60ff168151145b620000f55760405162461bcd60e51b815260206004820152602960248201527f4465636b2073697a6520646f65736e2774206d617463682067616d6520726571604482015268756972656d656e747360b81b606482015260840160405180910390fd5b600180546001600160a01b03199081166001600160a01b038c81169182179093556002805483168c8516179055600380549092168a8416179091556040805160808101918290526327e235e360e01b90915291861660848301528190620001ba906327e235e360a484015b60206040518083038186803b1580156200017957600080fd5b505afa1580156200018e573d6000803e3d6000fd5b505050506040513d601f19601f82011682018060405250810190620001b4919062000727565b620003ab565b60ff9081168252885181166020808401919091526001600160a01b0380891660408086019190915260609485018890528551600480548886015193890151909416620100000262010000600160b01b03199387166101000261ffff1990951692909616919091179290921716929092178255918301518051919262000246926005929091019062000400565b50506040805160808101918290526001546327e235e360e01b9092526001600160a01b03868116608483015290925082916200028c91166327e235e360a4840162000160565b60ff9081168252885181166020808401919091526001600160a01b0380881660408086019190915260609485018790528551600680548886015193890151909416620100000262010000600160b01b03199387166101000261ffff1990951692909616919091179290921716929092178255918301518051919262000318926007929091019062000400565b50505033606090811b6101205285901b6001600160601b03191661010052604086015160f090811b6001600160f01b031990811660e052602088015190911b1660c052855160f81b6001600160f81b03191660a05285516001906200037f90600262000741565b6200038b91906200076d565b60f81b6001600160f81b03191660805250620007d8975050505050505050565b60006064821015620003bf5750600a919050565b6101c2821015620003d25750600f919050565b61041a821015620003e557506014919050565b6110fe821015620003f857506019919050565b50601e919050565b82805482825590600052602060002090601f016020900481019282156200049b5791602002820160005b838211156200046a57835183826101000a81548160ff021916908360ff16021790555092602001926001016020816000010492830192600103026200042a565b8015620004995782816101000a81549060ff02191690556001016020816000010492830192600103026200046a565b505b50620004a9929150620004ad565b5090565b5b80821115620004a95760008155600101620004ae565b8051620004d181620007bf565b919050565b600082601f830112620004e857600080fd5b815160206001600160401b0380831115620005075762000507620007a9565b8260051b604051601f19603f830116810181811084821117156200052f576200052f620007a9565b604052848152838101925086840182880185018910156200054f57600080fd5b600092505b858310156200057d5762000568816200061e565b84529284019260019290920191840162000554565b50979650505050505050565b6000608082840312156200059c57600080fd5b604051608081016001600160401b0381118282101715620005c157620005c1620007a9565b604052905080620005d2836200061e565b8152620005e2602084016200060b565b6020820152620005f5604084016200060b565b6040820152606083015160608201525092915050565b805161ffff81168114620004d157600080fd5b805160ff81168114620004d157600080fd5b60008060008060008060008060006101808a8c0312156200065057600080fd5b89516200065d81620007bf565b60208b01519099506200067081620007bf565b97506200068060408b01620004c4565b9650620006918b60608c0162000589565b9550620006a160e08b01620004c4565b9450620006b26101008b01620004c4565b9350620006c36101208b01620004c4565b6101408b01519093506001600160401b0380821115620006e257600080fd5b620006f08d838e01620004d6565b93506101608c01519150808211156200070857600080fd5b50620007178c828d01620004d6565b9150509295985092959850929598565b6000602082840312156200073a57600080fd5b5051919050565b600060ff821660ff84168160ff048111821515161562000765576200076562000793565b029392505050565b600060ff821660ff8416808210156200078a576200078a62000793565b90039392505050565b634e487b7160e01b600052601160045260246000fd5b634e487b7160e01b600052604160045260246000fd5b6001600160a01b0381168114620007d557600080fd5b50565b60805160f81c60a05160f81c60c05160f01c60e05160f01c6101005160601c6101205160601c612de862000879600039600081816119e10152818161229d015281816124cc0152818161258001526126c5015260006126e601526000612710015260008181611a1c015281816122d801526125ad0152600061060301526000818161012901528181610aad01528181610aeb01526116980152612de86000f3fe608060405234801561001057600080fd5b50600436106100575760003560e01c8063112007bd1461005c5780631be80d551461007a5780633f312752146100c85780634f033fa0146100dd578063d9d881e31461010b575b600080fd5b610064610120565b6040516100719190612b47565b60405180910390f35b61008d610088366004612b08565b6102b2565b60408051951515865260ff94851660208701529284169285019290925290911660608301526001600160a01b0316608082015260a001610071565b6100db6100d6366004612980565b61031d565b005b6100fd6100eb366004612950565b600b6020526000908152604090205481565b604051908152602001610071565b6101136103bd565b6040516100719190612bca565b6060600061014e7f000000000000000000000000000000000000000000000000000000000000000080612c81565b60ff1667ffffffffffffffff81111561016957610169612d8d565b6040519080825280602002602001820160405280156101c257816020015b6040805160a0810182526000808252602080830182905292820181905260608201819052608082015282526000199092019101816101875790505b50905060005b81518110156102ac57600c6101de600583612c4e565b815481106101ee576101ee612d77565b906000526020600020016005826102059190612d21565b8154811061021557610215612d77565b60009182526020918290206040805160a081018252919092015460ff8082161515835261010082048116948301949094526201000081048416928201929092526301000000820490921660608301526001600160a01b03600160201b909104166080820152825183908390811061028e5761028e612d77565b602002602001018190525080806102a490612d06565b9150506101c8565b50919050565b600c82815481106102c257600080fd5b9060005260206000200181815481106102da57600080fd5b60009182526020909120015460ff80821693506101008204811692506201000082048116916301000000810490911690600160201b90046001600160a01b031685565b6008546201000090046001600160a01b031633146103735760405162461bcd60e51b815260206004820152600e60248201526d2737ba103934b3b43a103a3ab93760911b60448201526064015b60405180910390fd5b60005b818110156103b05761039e83838381811061039357610393612d77565b905060c00201610454565b806103a881612d06565b915050610376565b506103b96105fd565b5050565b6004546060906201000090046001600160a01b031633146103df5760056103e2565b60075b80548060200260200160405190810160405280929190818152602001828054801561044a57602002820191906000526020600020906000905b825461010083900a900460ff1681526020600192830181810494850194909303909202910180841161041b5790505b5050505050905090565b60006104636020830183612a10565b600681111561047457610474612d61565b14156104a5576104a261048d6040830160208401612b2a565b61049d6080840160608501612b2a565b610736565b50565b60016104b46020830183612a10565b60068111156104c5576104c5612d61565b14156104db576104a281604001826080016109de565b60026104ea6020830183612a10565b60068111156104fb576104fb612d61565b1415610511576104a28160400182608001610eb7565b60036105206020830183612a10565b600681111561053157610531612d61565b1415610543576104a2816040016114f2565b60046105526020830183612a10565b600681111561056357610563612d61565b1415610585576104a261057c6040830160208401612b2a565b82608001611834565b60056105946020830183612a10565b60068111156105a5576105a5612d61565b14156105bb576104a28160400182608001611cc2565b60066105ca6020830183612a10565b60068111156105db576105db612d61565b14156104a2576104a26105f46040830160208401612b2a565b8260800161211b565b600880547f0000000000000000000000000000000000000000000000000000000000000000919060019061063a908490610100900460ff16612c29565b92506101000a81548160ff021916908360ff1602179055506000600181111561066557610665612d61565b60005460ff16600181111561067c5761067c612d61565b1461068857600061068b565b60015b6000805460ff1916600183818111156106a6576106a6612d61565b021790555060008054610100900461ffff169060016106c483612ce4565b91906101000a81548161ffff021916908361ffff160217905550507fb2a5f112f4ef2b6d1ab7a886557835d90f7826318e7a0a40a34673a7248ba8de60008054906101000a900460ff16600181111561071f5761071f612d61565b60405160ff909116815260200160405180910390a1565b600060086001018360ff168154811061075157610751612d77565b6000918252602080832090820401546003546040516348c4698960e11b8152601f9093166101000a90910460ff166004830181905293506001600160a01b031690639188d3129060240160e06040518083038186803b1580156107b357600080fd5b505afa1580156107c7573d6000803e3d6000fd5b505050506040513d601f19601f820116820180604052508101906107eb9190612a31565b608081015160085491925060ff90811661010090920416116108465760405162461bcd60e51b8152602060048201526014602482015273115b995c99de481b9bdd081cdd59999a58d95b9d60621b604482015260640161036a565b608081015160088054600190610865908490610100900460ff16612cc1565b92506101000a81548160ff021916908360ff1602179055506040518060a001604052806001151581526020018560ff1681526020018260a0015160ff1681526020018360ff168152602001600860000160029054906101000a90046001600160a01b03166001600160a01b0316815250600c6000815481106108e9576108e9612d77565b906000526020600020018460ff168154811061090757610907612d77565b600091825260209182902083519101805484840151604080870151606088015160809098015161ffff1990941695151561ff0019169590951761010060ff938416021763ffff00001916620100009583169590950263ff00000019169490941763010000009682169690960295909517640100000000600160c01b031916600160201b6001600160a01b039092169190910217905580518684168152928516918301919091527f2a102de3851f9d59b8d145c1ce90b60cb023d819273a14fd3b25e7f0cec7ed4e910160405180910390a150505050565b6000600c6109ef6020850185612b2a565b60ff1681548110610a0257610a02612d77565b90600052602060002001836020016020810190610a1f9190612b2a565b60ff1681548110610a3257610a32612d77565b60009182526020918290206040805160a081018252929091015460ff8082161515845261010082048116848601526201000080830482169385019390935263010000008204811660608501526001600160a01b03600160201b90920482166080850152600454600854949650938390048216929093041614917f000000000000000000000000000000000000000000000000000000000000000090911690610adc90850185612b2a565b60ff16108015610b20575060ff7f000000000000000000000000000000000000000000000000000000000000000016610b1b6040850160208601612b2a565b60ff16105b610b605760405162461bcd60e51b8152602060048201526011602482015270546172676574206f66662d626f756e647360781b604482015260640161036a565b600081610b9057610b746020850185612b2a565b610b816020870187612b2a565b610b8b9190612cc1565b610bb4565b610b9d6020860186612b2a565b610baa6020860186612b2a565b610bb49190612cc1565b90506000610bc86040870160208801612b2a565b60ff16610bdb6040870160208801612b2a565b60ff161015610c1357610bf46040860160208701612b2a565b610c046040880160208901612b2a565b610c0e9190612cc1565b610c3d565b610c236040870160208801612b2a565b610c336040870160208801612b2a565b610c3d9190612cc1565b90508160ff1660011480610c5457508060ff166001145b610c935760405162461bcd60e51b815260206004820152601060248201526f125b1b1959d85b081b5bdd995b595b9d60821b604482015260640161036a565b60088054600191908290610cb0908290610100900460ff16612cc1565b92506101000a81548160ff021916908360ff16021790555083600c866000016020810190610cde9190612b2a565b60ff1681548110610cf157610cf1612d77565b90600052602060002001866020016020810190610d0e9190612b2a565b60ff1681548110610d2157610d21612d77565b6000918252602091829020835191018054848401516040860151606087015160809097015161ffff1990931694151561ff0019169490941761010060ff928316021763ffff00001916620100009482169490940263ff0000001916939093176301000000939095169290920293909317640100000000600160c01b031916600160201b6001600160a01b039092169190910217909155600c90610dc690880188612b2a565b60ff1681548110610dd957610dd9612d77565b90600052602060002001866020016020810190610df69190612b2a565b60ff1681548110610e0957610e09612d77565b60009182526020918290200180546001600160c01b03191690557fd46e1b079f3442f942e1744a9c599b87a4a96c160cda79caa418bd5e4632a1c290610e5190880188612b2a565b610e616040890160208a01612b2a565b610e6e6020890189612b2a565b610e7e60408a0160208b01612b2a565b6040805160ff958616815293851660208501529184169183019190915290911660608201526080015b60405180910390a1505050505050565b6000600c610ec86020850185612b2a565b60ff1681548110610edb57610edb612d77565b90600052602060002001836020016020810190610ef89190612b2a565b60ff1681548110610f0b57610f0b612d77565b600091825260208083206040805160a081018252939091015460ff808216151585526101008204811685850152620100008204811692850192909252630100000081049091166060840152600160201b90046001600160a01b03166080830152909250600c90610f7d90850185612b2a565b60ff1681548110610f9057610f90612d77565b90600052602060002001836020016020810190610fad9190612b2a565b60ff1681548110610fc057610fc0612d77565b600091825260208083206040805160a081018252939091015460ff8082161515855261010082048116938501939093526201000081048316848301526301000000810483166060808601919091526001600160a01b03600160201b909204821660808601526003549088015192516348c4698960e11b8152929093166004830152929450911690639188d3129060240160e06040518083038186803b15801561106857600080fd5b505afa15801561107c573d6000803e3d6000fd5b505050506040513d601f19601f820116820180604052508101906110a09190612a31565b90506000816020015160018111156110ba576110ba612d61565b146110fb5760405162461bcd60e51b81526020600482015260116024820152704e6f74206120636172642061747461636b60781b604482015260640161036a565b60045460085462010000918290046001600160a01b0390811692909104161460008161114a5761112e6020870187612b2a565b61113b6020890189612b2a565b6111459190612cc1565b61116e565b6111576020880188612b2a565b6111646020880188612b2a565b61116e9190612cc1565b905060006111826040890160208a01612b2a565b60ff166111956040890160208a01612b2a565b60ff1610156111cd576111ae6040880160208901612b2a565b6111be60408a0160208b01612b2a565b6111c89190612cc1565b6111f7565b6111dd6040890160208a01612b2a565b6111ed6040890160208a01612b2a565b6111f79190612cc1565b9050836060015160ff168260ff161115801561121d5750836040015160ff168160ff1611155b6112625760405162461bcd60e51b8152602060048201526016602482015275546172676574206973206f7574206f662072616e676560501b604482015260640161036a565b600854600161010090910460ff16116112bd5760405162461bcd60e51b815260206004820152601c60248201527f4e6f7420656e6f75676820656e6572677920666f722061747461636b00000000604482015260640161036a565b600880546001919082906112da908290610100900460ff16612cc1565b92506101000a81548160ff021916908360ff1602179055508360c0015160ff16856040015160ff16116113be576000805460808701516001600160a01b03168252600a60209081526040808420828a015160ff1685528252909220805461010090920461ffff1661ffff19909216919091179055600c9061135d90890189612b2a565b60ff168154811061137057611370612d77565b9060005260206000200187602001602081019061138d9190612b2a565b60ff16815481106113a0576113a0612d77565b600091825260209091200180546001600160c01b0319169055611452565b60c0840151600c6113d260208a018a612b2a565b60ff16815481106113e5576113e5612d77565b906000526020600020018860200160208101906114029190612b2a565b60ff168154811061141557611415612d77565b6000918252602090912001805460029061143990849062010000900460ff16612cc1565b92506101000a81548160ff021916908360ff1602179055505b7f821fa0d3357caf1ed6e818f6af88d667dbb5e5afc86fd1dd63c43c5d9cb668de61148060208a018a612b2a565b61149060408b0160208c01612b2a565b61149d60208b018b612b2a565b6114ad60408c0160208d01612b2a565b60c08901516040805160ff9687168152948616602086015292851684840152908416606084015292909216608082015290519081900360a00190a15050505050505050565b60008060005460ff16600181111561150c5761150c612d61565b1461151857600461151b565b60065b90506000600c61152e6020850185612b2a565b60ff168154811061154157611541612d77565b9060005260206000200183602001602081019061155e9190612b2a565b60ff168154811061157157611571612d77565b600091825260208083206040805160a081018252939091015460ff80821615158552610100820481169385019390935262010000810483168483015263010000008104909216606084018190526001600160a01b03600160201b9093048316608085015260035491516348c4698960e11b815260048101919091529294501690639188d3129060240160e06040518083038186803b15801561161257600080fd5b505afa158015611626573d6000803e3d6000fd5b505050506040513d601f19601f8201168201806040525081019061164a9190612a31565b60045460085491925062010000918290046001600160a01b039081169290910416148061168f57606082015160ff166116866020870187612b2a565b60ff16106116d6565b606082015160ff7f000000000000000000000000000000000000000000000000000000000000000016906116c66020880188612b2a565b6116d09190612c29565b60ff1610155b6117195760405162461bcd60e51b815260206004820152601460248201527342617365206973206f7574206f662072616e676560601b604482015260640161036a565b60088054600191908290611736908290610100900460ff16612cc1565b82546101009290920a60ff818102199093169183160217909155855460c085015190821691161115905061178f57600854845461178a916001600160a01b03620100009182900481169291909104166124b2565b6117c2565b60c0820151845485906000906117a990849060ff16612cc1565b92506101000a81548160ff021916908360ff1602179055505b7f9514b0a645ab311710078885b3d1aa7b7c941ade5dba24715646519e625ec8586117f06020870187612b2a565b6118006040880160208901612b2a565b60c08501516040805160ff948516815292841660208401529216918101919091526060015b60405180910390a15050505050565b60008060005460ff16600181111561184e5761184e612d61565b1461185a57600461185d565b60065b90506000600c6118706020850185612b2a565b60ff168154811061188357611883612d77565b906000526020600020018360200160208101906118a09190612b2a565b60ff16815481106118b3576118b3612d77565b600091825260208083206040805160a081018252939091015460ff8082161515855261010082048116938501939093526201000081048316918401919091526301000000810482166060840152600160201b90046001600160a01b03908116608084015260035460098054949650911692639188d31292891690811061193b5761193b612d77565b60009182526020918290209181049091015460405160e084901b6001600160e01b0319168152601f9092166101000a900460ff16600482015260240160e06040518083038186803b15801561198f57600080fd5b505afa1580156119a3573d6000803e3d6000fd5b505050506040513d601f19601f820116820180604052508101906119c79190612a31565b600254604051636eb1769f60e11b81526001600160a01b037f0000000000000000000000000000000000000000000000000000000000000000811660048301523060248301529293506000926103e89261ffff7f0000000000000000000000000000000000000000000000000000000000000000169291169063dd62ed3e9060440160206040518083038186803b158015611a6157600080fd5b505afa158015611a75573d6000803e3d6000fd5b505050506040513d601f19601f82011682018060405250810190611a999190612aef565b611aa39190612c62565b611aad9190612c4e565b9050611aba600582612c4e565b336000908152600b602052604081208054909190611ad9908490612c11565b925050819055508160c0015160ff16836040015160ff1611611baf576000805485546201000090046001600160a01b03168252600a602090815260408084208783015160ff1685528252909220805461010090920461ffff1661ffff19909216919091179055600c90611b4e90870187612b2a565b60ff1681548110611b6157611b61612d77565b90600052602060002001856020016020810190611b7e9190612b2a565b60ff1681548110611b9157611b91612d77565b600091825260209091200180546001600160c01b0319169055611c4f565b60038260c00151611bc09190612c81565b600c611bcf6020880188612b2a565b60ff1681548110611be257611be2612d77565b90600052602060002001866020016020810190611bff9190612b2a565b60ff1681548110611c1257611c12612d77565b60009182526020909120018054600290611c3690849062010000900460ff16612cc1565b92506101000a81548160ff021916908360ff1602179055505b7fad81c2d8ff449019cfaf2eda745547aae68efd585520cf7bbad02ca0ff57aaf1611c7d6020870187612b2a565b611c8d6040880160208901612b2a565b60038560c00151611c9e9190612c81565b6040805160ff94851681529284166020840152921691810191909152606001610ea7565b6000600c611cd36020850185612b2a565b60ff1681548110611ce657611ce6612d77565b90600052602060002001836020016020810190611d039190612b2a565b60ff1681548110611d1657611d16612d77565b600091825260208083206040805160a081018252939091015460ff80821615158552610100820481169385019390935262010000810483168483015263010000008104909216606084018190526001600160a01b03600160201b9093048316608085015260035491516348c4698960e11b815260048101919091529294501690639188d3129060240160e06040518083038186803b158015611db757600080fd5b505afa158015611dcb573d6000803e3d6000fd5b505050506040513d601f19601f82011682018060405250810190611def9190612a31565b60045460085491925062010000918290046001600160a01b03908116929091041614600081611e4157611e256020860186612b2a565b611e326020880188612b2a565b611e3c9190612cc1565b611e65565b611e4e6020870187612b2a565b611e5b6020870187612b2a565b611e659190612cc1565b90506000611e796040880160208901612b2a565b60ff16611e8c6040880160208901612b2a565b60ff161015611ec457611ea56040870160208801612b2a565b611eb56040890160208a01612b2a565b611ebf9190612cc1565b611eee565b611ed46040880160208901612b2a565b611ee46040880160208901612b2a565b611eee9190612cc1565b9050836060015160ff168260ff1611158015611f145750836040015160ff168160ff1611155b611f595760405162461bcd60e51b8152602060048201526016602482015275546172676574206973206f7574206f662072616e676560501b604482015260640161036a565b600854600161010090910460ff1611611fa85760405162461bcd60e51b81526020600482015260116024820152704e6f7420656e6f75676820656e6572677960781b604482015260640161036a565b60088054600191908290611fc5908290610100900460ff16612cc1565b92506101000a81548160ff021916908360ff1602179055508360c00151600c876000016020810190611ff79190612b2a565b60ff168154811061200a5761200a612d77565b906000526020600020018760200160208101906120279190612b2a565b60ff168154811061203a5761203a612d77565b6000918252602090912001805460029061205e90849062010000900460ff16612c29565b92506101000a81548160ff021916908360ff1602179055507f8755e3de7285d4f55c28476287892f02fa00fe2a9476fd9f76aa96ddce5a12378760000160208101906120aa9190612b2a565b6120ba60408a0160208b01612b2a565b6120c760208a018a612b2a565b6120d760408b0160208c01612b2a565b60c08901516040805160ff9687168152948616602086015292851684840152908416606084015292909216608082015290519081900360a00190a150505050505050565b6000600c61212c6020840184612b2a565b60ff168154811061213f5761213f612d77565b9060005260206000200182602001602081019061215c9190612b2a565b60ff168154811061216f5761216f612d77565b600091825260208083206040805160a081018252939091015460ff8082161515855261010082048116938501939093526201000081048316918401919091526301000000810482166060840152600160201b90046001600160a01b03908116608084015260035460098054949650911692639188d3129288169081106121f7576121f7612d77565b60009182526020918290209181049091015460405160e084901b6001600160e01b0319168152601f9092166101000a900460ff16600482015260240160e06040518083038186803b15801561224b57600080fd5b505afa15801561225f573d6000803e3d6000fd5b505050506040513d601f19601f820116820180604052508101906122839190612a31565b600254604051636eb1769f60e11b81526001600160a01b037f0000000000000000000000000000000000000000000000000000000000000000811660048301523060248301529293506000926103e89261ffff7f0000000000000000000000000000000000000000000000000000000000000000169291169063dd62ed3e9060440160206040518083038186803b15801561231d57600080fd5b505afa158015612331573d6000803e3d6000fd5b505050506040513d601f19601f820116820180604052508101906123559190612aef565b61235f9190612c62565b6123699190612c4e565b9050612376600582612c4e565b336000908152600b602052604081208054909190612395908490612c11565b909155505060c08201516123ab90600390612c81565b600c6123ba6020870187612b2a565b60ff16815481106123cd576123cd612d77565b906000526020600020018560200160208101906123ea9190612b2a565b60ff16815481106123fd576123fd612d77565b6000918252602090912001805460029061242190849062010000900460ff16612c29565b92506101000a81548160ff021916908360ff1602179055507fb66f84be78126463140b4fcd1f22ebe400bb165705bbfdd215781a0a0678660e84600001602081019061246d9190612b2a565b61247d6040870160208801612b2a565b60038560c0015161248e9190612c81565b6040805160ff94851681529284166020840152921691810191909152606001611825565b600254604051636eb1769f60e11b81526001600160a01b037f000000000000000000000000000000000000000000000000000000000000000081166004830152306024830152600092169063dd62ed3e9060440160206040518083038186803b15801561251e57600080fd5b505afa158015612532573d6000803e3d6000fd5b505050506040513d601f19601f820116820180604052508101906125569190612aef565b6002546001600160a01b038581166000908152600b602052604090205492935016906323b872dd907f00000000000000000000000000000000000000000000000000000000000000009086906103e86125d361ffff7f00000000000000000000000000000000000000000000000000000000000000001688612c62565b6125dd9190612c4e565b6125e79190612caa565b6040516001600160e01b031960e086901b1681526001600160a01b0393841660048201529290911660248301526044820152606401602060405180830381600087803b15801561263657600080fd5b505af115801561264a573d6000803e3d6000fd5b505050506040513d601f19601f8201168201806040525081019061266e91906129f5565b6126b25760405162461bcd60e51b815260206004820152601560248201527415da5b9b995c881c185e5b595b9d0819985a5b1959605a1b604482015260640161036a565b6002546001600160a01b03166323b872dd7f00000000000000000000000000000000000000000000000000000000000000007f00000000000000000000000000000000000000000000000000000000000000006103e861273661ffff7f00000000000000000000000000000000000000000000000000000000000000001687612c62565b6127409190612c4e565b6040516001600160e01b031960e086901b1681526001600160a01b0393841660048201529290911660248301526044820152606401602060405180830381600087803b15801561278f57600080fd5b505af11580156127a3573d6000803e3d6000fd5b505050506040513d601f19601f820116820180604052508101906127c791906129f5565b6128135760405162461bcd60e51b815260206004820152601a60248201527f4172656e61206f776e6572207061796d656e74206661696c6564000000000000604482015260640161036a565b6001546040516340c10f1960e01b81526001600160a01b038581166004830152600a6024830152909116906340c10f1990604401600060405180830381600087803b15801561286157600080fd5b505af1158015612875573d6000803e3d6000fd5b50506001546040516340c10f1960e01b81526001600160a01b0386811660048301526002602483015290911692506340c10f199150604401600060405180830381600087803b1580156128c757600080fd5b505af11580156128db573d6000803e3d6000fd5b50506040516001600160a01b03861681527f1728dd43546edd06fabfe796e5b641a151aa90998bfd1b1ec0ae98c6e77084599250602001905060405180910390a1505050565b8051801515811461293157600080fd5b919050565b80516002811061293157600080fd5b805161293181612da3565b60006020828403121561296257600080fd5b81356001600160a01b038116811461297957600080fd5b9392505050565b6000806020838503121561299357600080fd5b823567ffffffffffffffff808211156129ab57600080fd5b818501915085601f8301126129bf57600080fd5b8135818111156129ce57600080fd5b86602060c0830285010111156129e357600080fd5b60209290920196919550909350505050565b600060208284031215612a0757600080fd5b61297982612921565b600060208284031215612a2257600080fd5b81356007811061297957600080fd5b600060e08284031215612a4357600080fd5b60405160e0810181811067ffffffffffffffff82111715612a7457634e487b7160e01b600052604160045260246000fd5b604052612a8083612921565b8152612a8e60208401612936565b6020820152612a9f60408401612945565b6040820152612ab060608401612945565b6060820152612ac160808401612945565b6080820152612ad260a08401612945565b60a0820152612ae360c08401612945565b60c08201529392505050565b600060208284031215612b0157600080fd5b5051919050565b60008060408385031215612b1b57600080fd5b50508035926020909101359150565b600060208284031215612b3c57600080fd5b813561297981612da3565b602080825282518282018190526000919060409081850190868401855b82811015612bbd5781518051151585528681015160ff9081168887015286820151811687870152606080830151909116908601526080908101516001600160a01b03169085015260a09093019290850190600101612b64565b5091979650505050505050565b6020808252825182820181905260009190848201906040850190845b81811015612c0557835160ff1683529284019291840191600101612be6565b50909695505050505050565b60008219821115612c2457612c24612d35565b500190565b600060ff821660ff84168060ff03821115612c4657612c46612d35565b019392505050565b600082612c5d57612c5d612d4b565b500490565b6000816000190483118215151615612c7c57612c7c612d35565b500290565b600060ff821660ff84168160ff0481118215151615612ca257612ca2612d35565b029392505050565b600082821015612cbc57612cbc612d35565b500390565b600060ff821660ff841680821015612cdb57612cdb612d35565b90039392505050565b600061ffff80831681811415612cfc57612cfc612d35565b6001019392505050565b6000600019821415612d1a57612d1a612d35565b5060010190565b600082612d3057612d30612d4b565b500690565b634e487b7160e01b600052601160045260246000fd5b634e487b7160e01b600052601260045260246000fd5b634e487b7160e01b600052602160045260246000fd5b634e487b7160e01b600052603260045260246000fd5b634e487b7160e01b600052604160045260246000fd5b60ff811681146104a257600080fdfea2646970667358221220b114189aaa8dcb174435927b8faf1a592bd10a6398af08ab09bfa87c3dab83b764736f6c63430008070033a2646970667358221220bdcd88e929ea4f23f29a0250920ed26c0fc4570608496c25dca4867936196c5964736f6c63430008070033",
  "linkReferences": {},
  "deployedLinkReferences": {}
}