{
  "_format": "hh-sol-artifact-1",
  "contractName": "Marketplace",
  "sourceName": "contracts/Marketplace.sol",
  "abi": [
    {
      "inputs": [
        {
          "internalType": "contract ARENA",
          "name": "arenaAddress",
          "type": "address"
        },
        {
          "internalType": "contract GOD",
          "name": "godAddress",
          "type": "address"
        },
        {
          "internalType": "address",
          "name": "sons",
          "type": "address"
        },
        {
          "internalType": "address",
          "name": "bilira",
          "type": "address"
        }
      ],
      "stateMutability": "nonpayable",
      "type": "constructor"
    },
    {
      "inputs": [
        {
          "internalType": "uint256",
          "name": "listingId",
          "type": "uint256"
        }
      ],
      "name": "buyListing",
      "outputs": [],
      "stateMutability": "nonpayable",
      "type": "function"
    },
    {
      "inputs": [],
      "name": "getAllListings",
      "outputs": [
        {
          "components": [
            {
              "internalType": "bool",
              "name": "initialized",
              "type": "bool"
            },
            {
              "internalType": "enum AssetType",
              "name": "asset",
              "type": "uint8"
            },
            {
              "internalType": "enum TokenType",
              "name": "token",
              "type": "uint8"
            },
            {
              "internalType": "uint16",
              "name": "amount",
              "type": "uint16"
            },
            {
              "internalType": "address",
              "name": "owner",
              "type": "address"
            },
            {
              "internalType": "uint256",
              "name": "assetId",
              "type": "uint256"
            },
            {
              "internalType": "uint256",
              "name": "price",
              "type": "uint256"
            }
          ],
          "internalType": "struct ListingDetails[]",
          "name": "results",
          "type": "tuple[]"
        }
      ],
      "stateMutability": "view",
      "type": "function"
    },
    {
      "inputs": [
        {
          "internalType": "uint256",
          "name": "",
          "type": "uint256"
        }
      ],
      "name": "idToListingDetails",
      "outputs": [
        {
          "internalType": "bool",
          "name": "initialized",
          "type": "bool"
        },
        {
          "internalType": "enum AssetType",
          "name": "asset",
          "type": "uint8"
        },
        {
          "internalType": "enum TokenType",
          "name": "token",
          "type": "uint8"
        },
        {
          "internalType": "uint16",
          "name": "amount",
          "type": "uint16"
        },
        {
          "internalType": "address",
          "name": "owner",
          "type": "address"
        },
        {
          "internalType": "uint256",
          "name": "assetId",
          "type": "uint256"
        },
        {
          "internalType": "uint256",
          "name": "price",
          "type": "uint256"
        }
      ],
      "stateMutability": "view",
      "type": "function"
    },
    {
      "inputs": [
        {
          "internalType": "uint256",
          "name": "arenaId",
          "type": "uint256"
        },
        {
          "internalType": "enum TokenType",
          "name": "token",
          "type": "uint8"
        },
        {
          "internalType": "uint256",
          "name": "price",
          "type": "uint256"
        }
      ],
      "name": "listArena",
      "outputs": [],
      "stateMutability": "nonpayable",
      "type": "function"
    },
    {
      "inputs": [
        {
          "internalType": "uint256",
          "name": "cardType",
          "type": "uint256"
        },
        {
          "internalType": "uint16",
          "name": "amount",
          "type": "uint16"
        },
        {
          "internalType": "enum TokenType",
          "name": "token",
          "type": "uint8"
        },
        {
          "internalType": "uint256",
          "name": "price",
          "type": "uint256"
        }
      ],
      "name": "listGod",
      "outputs": [],
      "stateMutability": "nonpayable",
      "type": "function"
    },
    {
      "inputs": [
        {
          "internalType": "uint256",
          "name": "listingId",
          "type": "uint256"
        }
      ],
      "name": "removeListing",
      "outputs": [],
      "stateMutability": "nonpayable",
      "type": "function"
    }
  ],
  "bytecode": "0x608060405260006004553480156200001657600080fd5b50604051620014bf380380620014bf83398101604081905262000039916200008a565b600180546001600160a01b03199081166001600160a01b039485161790915560008054821692841692909217909155600280548216948316949094179093556003805490931691161790556200010b565b60008060008060808587031215620000a157600080fd5b8451620000ae81620000f2565b6020860151909450620000c181620000f2565b6040860151909350620000d481620000f2565b6060860151909250620000e781620000f2565b939692955090935050565b6001600160a01b03811681146200010857600080fd5b50565b6113a4806200011b6000396000f3fe608060405234801561001057600080fd5b50600436106100625760003560e01c80633d4e9d8b14610067578063479ad4c31461007c5780634884f4591461008f578063ae73ccec146100a2578063e30ee923146100c0578063f1fcd12a14610135575b600080fd5b61007a610075366004611164565b610148565b005b61007a61008a3660046110fd565b610540565b61007a61009d3660046110fd565b61073f565b6100aa610b30565b6040516100b791906111b1565b60405180910390f35b6101226100ce3660046110fd565b60076020526000908152604090208054600182015460029092015460ff808316936101008404821693620100008104909216926301000000830461ffff1692600160281b90046001600160a01b0316919087565b6040516100b79796959493929190611254565b61007a61014336600461112f565b610c57565b60035460405163e985e9c560e01b81523360048201523060248201526001600160a01b039091169063e985e9c59060440160206040518083038186803b15801561019157600080fd5b505afa1580156101a5573d6000803e3d6000fd5b505050506040513d601f19601f820116820180604052508101906101c991906110db565b61021a5760405162461bcd60e51b815260206004820152601760248201527f436f6e74726163742069736e277420617070726f76656400000000000000000060448201526064015b60405180910390fd5b33600081815260086020908152604080832088845290915290819020546003549151627eeac760e11b815260048101939093526024830187905261ffff86169290916001600160a01b03169062fdd58e9060440160206040518083038186803b15801561028657600080fd5b505afa15801561029a573d6000803e3d6000fd5b505050506040513d601f19601f820116820180604052508101906102be9190611116565b6102c891906112c3565b11156103165760405162461bcd60e51b815260206004820152601e60248201527f5573657220646f65736e2774206861766520656e6f75676820636172647300006044820152606401610211565b6040516001600160f01b031960f085901b166020820152602281018590526bffffffffffffffffffffffff193360601b16604282015260009060560160408051601f1981840301815291815281516020928301206000818152600790935291205490915060ff16156103ca5760405162461bcd60e51b815260206004820152601b60248201527f54686973206c697374696e6720616c72656164792065786973747300000000006044820152606401610211565b6040805160e081019091526001808252602082019081526020018460018111156103f6576103f661130b565b815261ffff861660208083019190915233604080840191909152606083018990526080909201859052600084815260078252919091208251815490151560ff19821681178355928401519192839161ff001990911661ffff19909116176101008360018111156104685761046861130b565b021790555060408201518154829062ff00001916620100008360018111156104925761049261130b565b02179055506060820151815460808401516001600160a01b0316600160281b0265010000000000600160c81b031961ffff938416630100000002166301000000600160c81b03199092169190911717825560a0830151600183015560c09092015160029091015533600090815260086020908152604080832089845290915281208054928716929091906105279084906112ab565b909155506105389050600582610ef4565b505050505050565b6000818152600760209081526040808320815160e08101909252805460ff8082161515845292939192918401916101009091041660018111156105855761058561130b565b60018111156105965761059661130b565b8152815460209091019062010000900460ff1660018111156105ba576105ba61130b565b60018111156105cb576105cb61130b565b815281546301000000810461ffff166020830152600160281b90046001600160a01b031660408201526001820154606082015260029091015460809091015280519091506106535760405162461bcd60e51b8152602060048201526015602482015274131a5cdd1a5b99c8191bd95cdb89dd08195e1a5cdd605a1b6044820152606401610211565b60808101516001600160a01b031633146106aa5760405162461bcd60e51b81526020600482015260186024820152771058d8dbdd5b9d081b9bdd081bdddb995c881bd98813919560421b6044820152606401610211565b6000816020015160018111156106c2576106c261130b565b141561070857606081015133600090815260086020908152604080832060a086015184529091528120805461ffff909316929091906107029084906112c3565b90915550505b600082815260076020526040812080546001600160c81b0319168155600181018290556002015561073a600583610f09565b505050565b6000818152600760209081526040808320815160e08101909252805460ff8082161515845292939192918401916101009091041660018111156107845761078461130b565b60018111156107955761079561130b565b8152815460209091019062010000900460ff1660018111156107b9576107b961130b565b60018111156107ca576107ca61130b565b815281546301000000810461ffff166020830152600160281b90046001600160a01b031660408201526001820154606082015260029091015460809091015280519091506108525760405162461bcd60e51b8152602060048201526015602482015274131a5cdd1a5b99c8191bd95cdb89dd08195e1a5cdd605a1b6044820152606401610211565b600060018260400151600181111561086c5761086c61130b565b14610882576001546001600160a01b031661088f565b6000546001600160a01b03165b60c08301516040516323b872dd60e01b815233600482015230602482015260448101919091529091506001600160a01b038216906323b872dd90606401602060405180830381600087803b1580156108e657600080fd5b505af11580156108fa573d6000803e3d6000fd5b505050506040513d601f19601f8201168201806040525081019061091e91906110db565b6109625760405162461bcd60e51b8152602060048201526015602482015274151bdad95b881d1c985b9cd9995c8819985a5b1959605a1b6044820152606401610211565b60008260200151600181111561097a5761097a61130b565b14156109fb57600254608083015160a08401516040516323b872dd60e01b81526001600160a01b03928316600482015233602482015260448101919091529116906323b872dd90606401600060405180830381600087803b1580156109de57600080fd5b505af11580156109f2573d6000803e3d6000fd5b50505050610af8565b600182602001516001811115610a1357610a1361130b565b1415610af857600354608083015160a0808501516060860151604051637921219560e11b81526001600160a01b039485166004820152336024820152604481019290925261ffff1660648201526084810191909152600060a482015291169063f242432a9060c401600060405180830381600087803b158015610a9557600080fd5b505af1158015610aa9573d6000803e3d6000fd5b505050606083015160808401516001600160a01b0316600090815260086020908152604080832060a088015184529091528120805461ffff909316935091610af29084906112c3565b90915550505b600083815260076020526040812080546001600160c81b03191681556001810182905560020155610b2a600584610f09565b50505050565b606060005b610b3f6005610f15565b811015610c535760076000610b55600584610f1f565b81526020808201929092526040908101600020815160e08101909252805460ff808216151584529293919291840191610100909104166001811115610b9c57610b9c61130b565b6001811115610bad57610bad61130b565b8152815460209091019062010000900460ff166001811115610bd157610bd161130b565b6001811115610be257610be261130b565b815281546301000000810461ffff166020830152600160281b90046001600160a01b03166040820152600182015460608201526002909101546080909101528251839083908110610c3557610c35611337565b60200260200101819052508080610c4b906112da565b915050610b35565b5090565b600083604051602001610c6c91815260200190565b60408051808303601f190181529082905280516020909101206002546331a9108f60e11b83526004830187905290925033916001600160a01b0390911690636352211e9060240160206040518083038186803b158015610ccb57600080fd5b505afa158015610cdf573d6000803e3d6000fd5b505050506040513d601f19601f82011682018060405250810190610d0391906110ab565b6001600160a01b031614610d545760405162461bcd60e51b81526020600482015260186024820152771058d8dbdd5b9d081b9bdd081bdddb995c881bd98813919560421b6044820152606401610211565b60008181526007602052604090205460ff1615610db35760405162461bcd60e51b815260206004820152601760248201527f426f61726420697320616c7265616479206c69737465640000000000000000006044820152606401610211565b6040805160e08101909152600181526020810160008152602001846001811115610ddf57610ddf61130b565b81526001602080830182905233604080850191909152606084018990526080909301869052600085815260078252929092208351815490151560ff198216811783559385015191939192849261ff00191661ffff199092169190911790610100908490811115610e5157610e5161130b565b021790555060408201518154829062ff0000191662010000836001811115610e7b57610e7b61130b565b02179055506060820151815460808401516001600160a01b0316600160281b0265010000000000600160c81b031961ffff909316630100000002929092166301000000600160c81b03199091161717815560a0820151600182015560c090910151600290910155610eed600582610ef4565b5050505050565b6000610f008383610f2b565b90505b92915050565b6000610f008383610f7a565b6000610f03825490565b6000610f00838361106d565b6000818152600183016020526040812054610f7257508154600181810184556000848152602080822090930184905584548482528286019093526040902091909155610f03565b506000610f03565b60008181526001830160205260408120548015611063576000610f9e6001836112c3565b8554909150600090610fb2906001906112c3565b9050818114611017576000866000018281548110610fd257610fd2611337565b9060005260206000200154905080876000018481548110610ff557610ff5611337565b6000918252602080832090910192909255918252600188019052604090208390555b855486908061102857611028611321565b600190038181906000526020600020016000905590558560010160008681526020019081526020016000206000905560019350505050610f03565b6000915050610f03565b600082600001828154811061108457611084611337565b9060005260206000200154905092915050565b8035600281106110a657600080fd5b919050565b6000602082840312156110bd57600080fd5b81516001600160a01b03811681146110d457600080fd5b9392505050565b6000602082840312156110ed57600080fd5b815180151581146110d457600080fd5b60006020828403121561110f57600080fd5b5035919050565b60006020828403121561112857600080fd5b5051919050565b60008060006060848603121561114457600080fd5b8335925061115460208501611097565b9150604084013590509250925092565b6000806000806080858703121561117a57600080fd5b84359350602085013561ffff8116811461119357600080fd5b92506111a160408601611097565b9396929550929360600135925050565b602080825282518282018190526000919060409081850190868401855b82811015611247578151805115158552868101516111eb8161134d565b85880152808601516111fc8161134d565b8587015260608181015161ffff16908601526080808201516001600160a01b03169086015260a0808201519086015260c0908101519085015260e090930192908501906001016111ce565b5091979650505050505050565b871515815260e081016112668861134d565b8760208301526112758761134d565b604082019690965261ffff9490941660608501526001600160a01b0392909216608084015260a083015260c09091015292915050565b600082198211156112be576112be6112f5565b500190565b6000828210156112d5576112d56112f5565b500390565b60006000198214156112ee576112ee6112f5565b5060010190565b634e487b7160e01b600052601160045260246000fd5b634e487b7160e01b600052602160045260246000fd5b634e487b7160e01b600052603160045260246000fd5b634e487b7160e01b600052603260045260246000fd5b6002811061136b57634e487b7160e01b600052602160045260246000fd5b5056fea264697066735822122063bb4ef160d3863d9941e5d520a5038bcb9f4c4e838ac7901751e0dd99203cdd64736f6c63430008070033",
  "linkReferences": {},
  "deployedLinkReferences": {}
}